:0600000002006B021B6B05
:03000B0002229A34
:03001300021BBE0F
:01001B0032B2
:03002300021AD3EB
:03002B0002262D7D
:01003300329A
:03003B00021C1193
:03004300021A940A
:01004B003282
:03005300021B1F6E
:01005B003272
:0300630002262B47
:03006600021C6514
:02006900E4733E
:0D006B00758144122C48E582600302006696
:100078007936E94400601B7A01902ED978ED75A095
:1000880001E493F2A308B8000205A0D9F4DAF275E6
:02009800A0FFC7
:06009A00E478FFF6D8FD3A
:1000A0007800E84400600A790A75A001E4F309D8F1
:1000B000FC78E3E84400600C790190010AE4F0A3C5
:0400C000D8FCD9FA95
:0A00C40090010BE4F0900127E4F036
:0E00CE007808E4F608F608F608F6780C7600D6
:0200DC00C2045C
:0200DE00C20559
:0300E000020066B5
:1000E400E58290010AF0E0F582121E8C7E008E8378
:1000F4002290010CE4F0758220121DC7E58260068F
:1001040090010C7401F0758221121DC7E58260080C
:1001140090010CE043E002F090010DE4F090010B3B
:10012400E0FF700A90010CE0FEBE01028034BF01C2
:1001340003EF8001E4FE600A90010CE0FDBD0302C0
:100144008020E4BF030104FD600A90010CE0FCBCC4
:100154000202800EE4BF020104FC600E90010CE078
:10016400700890010D7401F08036EF700A90010C54
:10017400E0FFBF02028023EC600A90010CE0FFBFA5
:1001840003028016ED600A90010CE0FFBF010280BB
:1001940009EE600C90010CE0700690010D74FFF004
:1001A40090010CE090010BF090010DE0F582221219
:1001B40005B27F017E00BE1800501B8E82C007C0AE
:1001C40006121A84AD82D006D007BDFF0280047FD8
:1001D4000080030E80E0EF700302028690010EE4BB
:1001E400F090010F7404F0900110E4F09001117488
:1001F40005F0900112E4F09001137406F0900114DC
:10020400E4F09001157407F0900116E4F0900117E2
:100214007408F0900118E4F09001197409F0900149
:100224001AE4F090011B740AF090011CE4F09001B0
:100234001D740BF090011EE4F090011F740CF090FB
:100244000120E4F0900121740DF0900122E4F0907B
:100254000123740EF0900124E4F0900125740FF052
:100264007F00BF1800501BEF240EF582E43401F523
:1002740083E090015BF08F82C007121A4ED0070F03
:1002840080E09001677402F0758211121D109001D4
:10029400677402F0758220121D109001677402F0D9
:1002A400758221121D100212E31214F7122353ACAB
:1002B40082AD839001F8E0F8A3E0F9A3E0A3E0ECB9
:1002C400C398FCED99FDC3EC9405ED6480948050D3
:1002D4000122122353AC82AD83AEF0FF9001F8ECFF
:1002E400F0EDA3F0EEA3F0EFA3F0758211121DC799
:1002F400AF82900126EFB40100E433F0900126E0D0
:1003040060249001EFE0701E122353AC82AD83AEE3
:10031400F0FF9001F1ECF0EDA3F0EEA3F0EFA3F009
:100324009001F07401F0900126E060030203C7908D
:1003340001EFE070030203C79001F0E070030203D1
:10034400C7122353AC82AD83AEF0FF9001F1E0F805
:10035400A3E0F9A3E0FAA3E0FBECC398FCED99FD5C
:10036400EE9AFEEF9BFFC3EC94F4ED9401EE94003F
:10037400EF940050399001FCE0FF9001587401F0B3
:10038400900159EFF090015A7401F075820012192E
:100394000C9001FCE0FF9001587401F0900159EFBA
:1003A400F090015AE4F075820012190C801090014B
:1003B400FCE0FFB4010092009001FCE433F09001F2
:1003C400F0E4F0900126E09001EFF01200F5E582F0
:1003D400FF700302046A900127E02401F0E0FEBEEE
:1003E4000400500302046A900127E4F0C364808F80
:1003F400F063F08095F050379001FCE0FF900158D5
:10040400E4F0900159EFF090015A7401F075820004
:1004140012190C9001FCE0FF900158E4F09001598E
:10042400EFF090015AE4F075820012190C803790B5
:1004340001FCE0FF9001587402F0900159EFF09034
:10044400015A7401F075820012190C9001FCE0FF4E
:100454009001587402F0900159EFF090015AE4F0C1
:1004640075820012190C75820B1200E4AE82AF8300
:100474009001F5E0FDE070308E038F04C374F59BAA
:10048400E49C50249001F57401F09001FCE0FC9090
:1004940001587402F0900159ECF090015A7401F083
:1004A40075820112190C802CED6029C3EE94E1EFE2
:1004B400940050209001F5E4F09001FCE0FF9001DD
:1004C400587402F0900159EFF090015AE4F07582EB
:1004D4000112190C75820E1200E4AE82AF839001F2
:1004E400F6E0FDE0702F8E038F04C374F59BE49C4B
:1004F40050239001F67401F09001FCE0FC90015847
:10050400E4F0900159ECF090015A7401F075820105
:1005140012190C802BED6028C3EE94E1EF94005087
:100524001F9001F6E4F09001FCE0FF900158E4F024
:10053400900159EFF090015AE4F075820112190C00
:1005440075820F1200E4AE82AF839001F7E0FDE004
:10055400702E8E038F04C374F59BE49C502290018B
:10056400F77401F09001FCE0FC9001587401F090E4
:100574000159ECF090015A7401F075820102190CD2
:10058400ED6029C3EE94E1EF940050209001F7E46C
:10059400F09001FCE0FF9001587401F0900159EFD4
:0D05A400F090015AE4F075820102190C225A
:1005B200120DD9120E03120DF275DD0075D30075FE
:1005C200D5002275D30074FC55D24402F5D29001B5
:1005D200FEE4F02275D50074FC55D44402F5D490A3
:1005E20001FFE4F02230DE1190000AE0FFBF0109B2
:1005F20090000BE0FF9001FDF02230DE030214AB0D
:1006020022AF82900129E07003F582227D007E00F4
:100612009001FEE060240DBD00010E900005C007B0
:10062200C006C00512244DD005D006D007C3ED94F4
:1006320050EE94C340DA75820022BF013990004A1D
:100642007401F07E00BE080050278E047D007441C4
:100652002CFCE43DFDEC240AFCED3400FDEE24000C
:10066200F582E43402F583E0FB8C828D83F00E8008
:10067200D475D309804DBF023990004A7402F07ECE
:1006820000BE040050278E047D0074412CFCE43D22
:10069200FDEC240AFCED3400FDEE2408F582E4347E
:1006A20002F583E0FB8C828D83F00E80D475D30536
:1006B2008011BF080B90004A7408F075D3218003A3
:1006C20075D3009001FE7401F053D2FC75820122B1
:1006D200900129E07003F582227E007F009001FFE5
:1006E200E060200EBE00010F900005C007C0061298
:1006F200244DD006D007C3EE9450EF94C340DE756C
:1007020082002275D5209001FF7401F053D4FC754C
:10071200820122AF82900200E04207900200EFF0D5
:1007220075820112060375820122AF82900200E0F7
:10073200FEEFF45206900200EEF0758201120603FB
:1007420075820122AF82900202E0FEB50702805C50
:10075200900203E0FEB507028052900204E0FEB56B
:1007620007028048900205E0FEB50702803E900233
:1007720006E0FEB507028034900207E0FEB50702EC
:10078200802A7E027D02ED2400FBE43402FC8B828F
:100792008C83E070088B828C83EFF080080D8D06CD
:1007A200BD080040E1BE0804758200227582011274
:1007B200060375820122AF827E02EF6016EE2400EC
:1007C200FCE43402FD8C828D83E0B507068C828DB9
:1007D20083E4F00EBE080040E17582011206037543
:1007E2008201227F00BF0800500FEF2400F582E44F
:1007F2003402F583E4F00F80EC7582010206039067
:1008020001FDE0F58222AF82900208E042079002E9
:1008120008EFF075820212060375820122AF829000
:100822000208E0FEEFF45206900208EEF075820232
:1008320012060375820122AF82C0071208089027B0
:100842001012244DD0078F8212081F75820122AF29
:1008520082900209EFF0900128E090020AF075827E
:100862000212060375820122AF8290020BEFF0752D
:09087200820212060375820122C4
:10087C00AFDBBF08028003020C63900007E0FE7F31
:10088C0000900006E0FD7C004FF510EC4EF5117F5A
:10089C0000900001E0F51290020CE4F0900000E0F2
:1008AC00FE54606027900000E0FE5306607D00BEA1
:1008BC002005BD0002800BBE400DBD000A7FFF026B
:1008CC000C657FFF020C657FFF020C65E51224F4BA
:1008DC005003020C5FE512240B83F582E512241001
:1008EC0083F583E473416F5F2F5F39095F4663655E
:1008FC00650C0A0C0B0C0A090C0A0A0C0C90000370
:10090C00E0FEBE01028012BE02028018BE0302800D
:10091C001EBE2202806F0209C97513BA75142C7F92
:10092C00120209CB7513CC75142C7F490209CB85A7
:10093C001082851183120ECB900002E070087513A3
:10094C00AA75142D8034900002E0FEBE01087513C8
:10095C00D875142D8024900002E0FEBE0208751399
:10096C00C075142D8014900002E0FEBE03087513B0
:10097C00AE75142D80047FFF80458513828514830A
:10098C00E493FF803A900002E0702E900004E07037
:10099C000E75131575142D902CE5E493FF802090A3
:1009AC000004E0FEBE010E75139175142D902D05FB
:1009BC00E493FF800A7FFF80067FFF80027FFFBFEA
:1009CC00FF03020C658F057E00C3ED9510EE9511AB
:1009DC0050048D108E11AD10AE11C3ED9408EE9431
:1009EC0000920140067B087C008004AB10AC118B9C
:1009FC00077C00C3EC9F50198C027B00EC2513F58F
:100A0C0082E43514F583E493F98A828B83F00C80AD
:100A1C00E28F037C00EDC39BFDEE9CFE8D108E11CE
:100A2C00EF2513F513E43514F514020C6590000250
:100A3C00E0FE8E10751100020C65900129E090000B
:100A4C0000F0AD10AE11C3ED9401EE940050030212
:100A5C000C657F01020C65900002E0FE900129F00C
:100A6C00020C65900000E0541F702F900003E0FD15
:100A7C007E00900002E0FC7B004206EB4205BE01CA
:100A8C0014BD0011902CD3E493FE30E503020C65E9
:100A9C007FFF020C657FFF020C65900000E0FE53A7
:100AAC00061F7D00BE0277BD0074900004E0FEBE00
:100ABC000102805FBE02028049BE03028033BE0485
:100ACC0002801DBE81028040BE8202802ABE83024B
:100ADC008014BE844474BC55DE4402F5DE020C6501
:100AEC0053DE73020C6574BC55D64402F5D6020C69
:100AFC006553D673020C6574BC55D44402F5D4020C
:100B0C000C6553D473020C6574BC55D24402F5D2F7
:100B1C00020C6553D273020C657FFF020C657FFFDC
:100B2C00020C65900000E0541F702F900003E0FD54
:100B3C007E00900002E0FC7B004206EB4205BE0109
:100B4C0014BD0011902CD3E493FE30E503020C6528
:100B5C007FFF020C657FFF020C65900000E0FE53E6
:100B6C00061F7D00BE0205BD00028003020C3D90F5
:100B7C000003E0FD7E00900002E0FC7B004206EBEF
:100B8C004205EE4D6003020C39900005E0FD7E003D
:100B9C00900004E0FC7B004206EB4205BE0106BD62
:100BAC000003020C2DBE0205BD00028060BE0305D1
:100BBC00BD00028044BE0405BD00028028BE810534
:100BCC00BD00028052BE8205BD00028036BE830588
:100BDC00BD0002801ABE8451BD004E74BF55DE4468
:100BEC0003F5DE8074747F55DE440CF5DE806A7488
:100BFC00BF55D64403F5D68060747F55D6440CF5AA
:100C0C00D6805674BF55D44403F5D4804C747F55AC
:100C1C00D4440CF5D4804274BF55D24403F5D28031
:100C2C0038747F55D2440CF5D27FFF802C7FFF8027
:100C3C00287FFF8024900000E4F0900001F0AD10BC
:100C4C00AE11C3ED9402EE940040047F02800AAF13
:100C5C001080067FFF80027FFFBFFF077512FF75B4
:100C6C00DCCF22EF24F740068FDD75DCC02275DD6A
:100C7C000075DCC0227405B51202805D7406B512D5
:100C8C0066AE10AF11C3EE9408EF940092024006CA
:100C9C007C087D008004AC10AD117D00C3ED9C5030
:100CAC00198D027B00ED2513F582E43514F583E4F0
:100CBC0093F98A828B83F00D80E28C037D00EEC366
:100CCC009BFEEF9DFF8E108F11EC2513F513E43571
:100CDC0014F5148CDD63DC4022E5E35480FFE51051
:100CEC004FF5E375DC022275DD0075DC022275DD43
:100CFC000043DC022220D903020DB2E5D9540FFFC8
:100D0C00ADD95305307E00BD0005BE0002801CBD70
:100D1C001005BE0002803CBD2005BE00028049BD0E
:100D2C003006BE0003020D98020DB0EF24FB5003F9
:100D3C00020DB0EF2F900D45738008800C800F8052
:100D4C00638061120CFA020DB01205E78056120591
:100D5C00FC8051EF24FB404CEF2F900D6A738044C4
:100D6C0080428040803E803CEF24FB4037EF2F9048
:100D7C000D7F738008800B800E80298027120C81D8
:100D8C0080221205C5801D1205D68018EF24FB4069
:100D9C0013EF2F900DA373800880098007800580C6
:100DAC000312087CC2D930D81775DC0275D21275C3
:100DBC00D41275E300C2DAC2D9C2D8900129E4F08A
:100DCC0010DA0122E5DA20E20375D8FF2275E20081
:100DDC0053E27F43E22975E30053E2BF53D1FB7525
:100DEC00D18043D1012243E10443E10243E10143B9
:100DFC00D81FD2EAD2AF227E007F008EEC8FED7E20
:100E0C000A7F008EEE8FEF7E8A7F008EE48FE57571
:0F0E1C00D21275D41275EAC075EB0C75DC022288
:100E2C0090020DE0FFBF0300500122900210E0FF82
:100E3C00BF0200401190020FE0FEBE01004007907F
:100E4C0002137402F02290020DE0FEB50707900227
:100E5C00137401F022BE0520900211E0FCA3E0FD0A
:100E6C00BCFF15BD0012BF010F90020EE0FDBD02CC
:100E7C00079002137403F022BE0412EF700F90025D
:100E8C000EE0FEBE02079002137404F022EF7017FE
:100E9C0090020EE0FEBE030F90020FE0FEBE0107B3
:100EAC009002137401F022BF0100401290020EE078
:100EBC00700C90020FE070069002137401F022AED9
:100ECC0082AF8390020DE0FD0D90020DEDF09002CB
:100EDC0011EEF0EFA3F0BE0210BF000D90020EE079
:100EEC00FD0D90020EEDF08024BE0410BF000D909D
:100EFC00020FE0FD0D90020FEDF08011BEFF0EBF52
:100F0C00000B900210E0FF0F900210EFF0020E2C7D
:100F1C00900213E0F58222900164E4F09001657474
:0E0F2C0007F0E4A3F090020D75F000021CE83F
:100F3A007E2A7F017D007C004305098E828F838D86
:100F4A00F0EC02277BE582900142F0900137E0FF46
:100F5A007043900139E0FCA3E0FDA3E0FE90013864
:100F6A00E0FB8C828D838EF01224BA90013CE0FC67
:100F7A00A3E0FDA3E0FE8C828D838EF0EB1224BAEF
:100F8A0090013FE0FCA3E0FDA3E0FE8C828D838EFE
:100F9A00F0EB0224BA900142E0FEFC7D00C007C0DB
:100FAA0006742BC0E0E4C0E08C828D83122B86ACE1
:100FBA008215811581D006D0078C05ED75F02BA41A
:100FCA00FDEEC39D75F006A4F5178F187519007408
:100FDA00FFC39518F515E49519F516900138E0F850
:100FEA00F97A00C007C004C002C001C000C015C021
:100FFA001689828A831224D5AE8315811581D00081
:10100A00D001D002D004D0078FF0E517A4E5F0FF95
:10101A003395E0FD74FFC39FFFE49DFDC006C00445
:10102A00C002C001C000C007C00589828A83122499
:10103A00D5AF8315811581D000D001D002D004D05C
:10104A0006AB177D0074FFC39BFBE49DFDC007C080
:10105A0006C004C002C001C000C003C005851882D2
:10106A008519831224D5AD8315811581D000D0014D
:10107A00D002EDFB3395E0FD74FFC39BFBE49DFDBD
:10108A00C000C003C00589828A831224D5AD8315A6
:10109A00811581D000D004D006D007ECFB24FB5088
:1010AA00030211FFEB2B2B9010B5730210C402112F
:1010BA00030211420211810211C0900139E0FAA320
:1010CA00E0FBA3E0FC8A828B838CF0E81224BA90BE
:1010DA00013CE0FAA3E0FBA3E0FC8A828B838CF05C
:1010EA00ED1224BA90013FE0FAA3E0FBA3E0FC8AE8
:1010FA00828B838CF0EE0224BA900139E0FAA3E0E5
:10110A00FBA3E0FC8A828B838CF0EF1224BA900155
:10111A003CE0FAA3E0FBA3E0FC8A828B838CF0E834
:10112A001224BA90013FE0FAA3E0FBA3E0FC8A8212
:10113A008B838CF0EE0224BA900139E0FAA3E0FB2B
:10114A00A3E0FC8A828B838CF0EE1224BA90013CD5
:10115A00E0FAA3E0FBA3E0FC8A828B838CF0E8121E
:10116A0024BA90013FE0FAA3E0FBA3E0FC8A828B59
:10117A00838CF0ED0224BA900139E0FAA3E0FBA3D4
:10118A00E0FC8A828B838CF0EE1224BA90013CE058
:10119A00FAA3E0FBA3E0FC8A828B838CF0EF122493
:1011AA00BA90013FE0FAA3E0FBA3E0FC8A828B83BA
:1011BA008CF0E80224BA900139E0FAA3E0FBA3E03C
:1011CA00FC8A828B838CF0ED1224BA90013CE0FBFE
:1011DA00A3E0FCA3E0FD8B828C838DF0EE1224BA8F
:1011EA0090013FE0FBA3E0FCA3E0FD8B828C838DA2
:1011FA00F0E80224BA900139E0FBA3E0FCA3E0FD89
:10120A008B828C838DF0E81224BA90013CE0FBA318
:10121A00E0FCA3E0FD8B828C838DF0EE1224BA9061
:10122A00013FE0FCA3E0FDA3E0FE8C828D838EF0FB
:10123A00EF0224BA900143E0FF900144E0FE9001DE
:10124A0045E0FD900137EEF0900138EDF09001395C
:10125A007446F07401A3F0E4A3F090013C7447F0E3
:10126A007401A3F0E4A3F090013F7448F07401A361
:10127A00F0E4A3F08F82120F4F900146E0C082C0C3
:10128A0083C0E0E58124F9F886820886830886F01F
:10129A00D0E01224BAD083D082A3E0C082C083C037
:1012AA00E0E58124F9F886820886830886F0A3D0CF
:1012BA00E01224BAD083D082A3E0C082C083C0E007
:1012CA00E58124F9F886820886830886F0A3A3D0EC
:1012DA00E01224BAD083D08222900133E4F0900144
:1012EA003414F0900135F09001367401F0758232B1
:1012FA00121A84AF82900133EFF0758233121A8486
:10130A00AF82900134EFF0758234121A84AF829062
:10131A000135EFF0758235121A84AF82900136EFEB
:10132A00F07F00EF242AF582E43401F583E4F00F1C
:10133A00BF090040EE12142A02142AE58290014CD9
:10134A00F0E0FFBF03004001227E00C007C0069004
:10135A0000031224D5AE82AF8315811581EE242AAB
:10136A00FEEF3401FF90014AE08E828F83F0740110
:10137A002EFCE43FFD900149E08C828D83F07402DB
:10138A002EFEE43FFF90014BE08E828F83F022E530
:10139A008290014FF090014DE0FF90014FE0FE90E6
:1013AA00014EE0FD7C008C027B00C007C006C00530
:1013BA00C004C002C0039000031224D5AA82AB83E2
:1013CA0015811581D004D005D006D007EA242AFA5F
:1013DA00EB3401FB8A828B83EFF08A828B83A3EE44
:1013EA00F08A828B83A3A3EDF00CBC030040B722E2
:1013FA00E582900152F0E0900133F0900150E090C4
:10140A000134F0900151E0900135F002142A900164
:10141A0036E0B401009203E433900136F002142A54
:10142A00900136E0701190014DE4F090014EF07594
:10143A0082001213998063900133E0FF900134E037
:10144A00FE900135E0FD900137EEF0900138EDF0A5
:10145A009001397453F07401A3F0E4A3F090013CB5
:10146A007454F07401A3F0E4A3F090013F7455F0B2
:10147A007401A3F0E4A3F08F82120F4F900153E09E
:10148A00FF900154E0FE900155E0FD90014DEEF011
:0D149A0090014EEDF08F82121399020F3A6F
:1014A8000206D29002147401F022E58275F006A4B7
:1014B800FF900156E075F003A42FFE900157E02E2F
:1014C80025E0FEF582C006121A84AF82D0068F0589
:1014D8007F000E8E82C007C005121A84AE82D00526
:1014E800D0077C00EE4207EC42058F828D83229064
:1014F8000214E0700122900214E4F090015C748AF6
:10150800F07400A3F0E4A3F090015F7420F0E4A36A
:10151800F09000CA75F000121C74902DE875F080E8
:101528001225F390008AE0FF7E007D007C008F8208
:101538008E838DF0EC1225B39028F3122082900050
:101548008AE0FF24EC5003021903EF240A83F58292
:10155800EF241883F583E47303889509B9EA092B06
:10156800A50E090949510909095D66BA1915151920
:1015780015151916171819191818191919181818E6
:101588009000CB7401F09000CCF00214A87F02BF49
:10159800200040030214A88F057E0074402DFDE44E
:1015A8003EFEED248AF582EE3400F583E4F00F80E8
:1015B800DE90008BE0FF90008CE0FE90008DE0FD57
:1015C800900156EEF0900157EDF08F821214B2AEF2
:1015D80082AF838F059000CEEDF09000CFEEF00241
:1015E80014A890008BE0FF90008CE0FE90008DE046
:1015F800FDEF75F006A4FFEE75F003A42F2D25E08E
:10160800FE90008EE090015BF08E82C006121A4EAA
:10161800D0060E90008FE090015BF08E82121A4E79
:101628000214A890008BE0FF90008CE0FE90008DE3
:10163800E0FD90008EE0FC902DF175F080C007C0B1
:1016480006C005C0041225F3D004D005D006D00783
:101658008F0079007A007B00888289838AF0EBC04A
:1016680007C006C005C0041225B3902DFB75F08095
:101678001225F3D004D005D0068E0079007A007BBD
:1016880000888289838AF0EBC006C005C004122551
:10169800B3902E0275F0801225F3D004D0058D008A
:1016A80079007A007B00888289838AF0EBC005C0C4
:1016B800041225B39028F3122082D004D005D00656
:1016C800D007BF020280030214A8BE01028013BE25
:1016D8000202803DBE03030214A8BE040280660213
:1016E80014A8900135EDF0902E0875F0801225F3BE
:1016F800900135E0FF7E007B007A008F828E838B1D
:10170800F0EA1225B39028F312208212142A021448
:10171800A8ED7016900136E4F0902E1875F080123E
:1017280025F39028F312208280159001367401F079
:10173800902E2075F0801225F39028F31220821243
:10174800142A0214A8900133EDF0900134ECF090C3
:101758002E2775F0801225F3900133E0FF7E007D7F
:10176800007C008F828E838DF0EC1225B39028F3D5
:10177800122082902E3075F0801225F3900134E00B
:10178800FF7E007D007C008F828E838DF0EC122519
:10179800B39028F312208212142A0214A890008B06
:1017A800E0FF90008CE0FEBF020280030214A8BE96
:1017B80001028012BE02028019BE0302802CBE0400
:1017C80002802F0214A8900135E0FF9000CDF002AE
:1017D80014A8900136E060067E017F0080047E0038
:1017E8007F009000CDEEF00214A89000CDE4F00246
:1017F80014A8900133E09000CDF0900134E0FF9000
:1018080000CEF00214A8900133E090015BF07582DD
:1018180032121A4E900134E090015BF07582331257
:101828001A4E900135E090015BF0758234121A4E21
:10183800900136E090015BF0758235121A4E021461
:10184800A89000CBE4F00214A89000CCE4F090003B
:10185800CDF00214A89000CB7402F00214A89000F6
:101868008BE07F0090008CE0420790008DE0FE7DC9
:1018780000C3ED9E40030214A88D037C0074442B22
:10188800FBE43CFCEB248AFBEC3400FCED2FF582F6
:10189800C007C006C005C004C003121A84AA82D0BB
:1018A80003D004D005D006D0078B828C83EAF00DD4
:1018B80080BF90008BE07F0090008CE04207900092
:1018C8008DE0FE7D00C3ED9E5037ED2FFC8D027B31
:1018D8000074042AFAE43BFBEA248AF582EB34001C
:1018E800F583E090015BF08C82C007C006C005124A
:1018F8001A4ED005D006D0070D80CA9000CA74FFD2
:10190800F00214A8AF82900159E0FE900158E0FD62
:10191800900156EFF0900157EDF08E821214B285C7
:10192800821A85831BAD1BBD01005003021A39EDD5
:1019380024E05003021A39ED20E4030219C490018F
:101948005AE0FC7B00BB04004003021A398BF00507
:10195800F079017A008006E929F9EA33FAD5F0F737
:101968008D007F00E85201EF5202E94A604BEC60BB
:10197800258B0774042FF5F005F07401800225E02B
:10198800D5F0FBF582C005C004C003120715D003CB
:10199800D004D00580238B0774042FF5F005F0746C
:1019A80001800225E0D5F0FBF582C005C004C00324
:1019B80012072CD003D004D0050B808990015AE07F
:1019C800FF7E00BE040050698EF005F07B017C00AC
:1019D8008006EB2BFBEC33FCD5F0F78D017A00E9A0
:1019E8005203EA5204EB4C6045EF60228E048CF0FF
:1019F80005F07401800225E0D5F0FBF582C007C030
:101A080006C005120715D005D006D00780208E0421
:101A18008CF005F07401800225E0D5F0FBF582C05A
:101A280007C006C00512072CD005D006D0070E80C7
:101A38009290015AE06007AE1A8E82020746AE1AEB
:051A48008E820207B8C8
:101A4E00AF82BF800040012275A15575A1AA43B196
:101A5E000475A1007585C0EF2FF58490015BE0F54C
:101A6E008EE58630E60375869A75A15575A1AA5343
:101A7E00B1FB75A10022AF827585C0EF2FF584757D
:061A8E00868E858E822287
:101A9400C021C0E0C0F0C082C083C007C006C0053A
:101AA400C004C003C002C001C000C0D075D0001281
:101AB4000D01D0D0D000D001D002D003D004D00585
:101AC400D006D007D083D082D0F0D0E0D02132C06D
:101AD40021C0E0C0F0C082C083C007C006C005C0FA
:101AE40004C003C002C001C000C0D075D00030984B
:101AF40005122A6AC298309905122AAAC299D0D02E
:101B0400D000D001D002D003D004D005D006D00735
:101B1400D083D082D0F0D0E0D02132C021C0E0C048
:101B2400F0C082C083C007C006C005C004C003C0A3
:101B340002C001C000C0D075D00030C005122AF820
:101B4400C2C030C105122B38C2C1D0D0D000D001E0
:101B5400D002D003D004D005D006D007D083D082E1
:101B6400D0F0D0E0D02132C021C0E0C0F0C082C0AB
:101B740083C007C006C005C004C003C002C001C0C2
:101B840000C0D075D000900217E0FEA3E0FFC007AC
:101B9400C0068E828F83120069D006D007D0D0D0C1
:101BA40000D001D002D003D004D005D006D007D095
:101BB40083D082D0F0D0E0D02132C021C0E0C0F088
:101BC400C082C083C007C006C005C004C003C002F1
:101BD400C001C000C0D075D000900219E0FEA3E09F
:101BE400FFC007C0068E828F83120069D006D0071B
:101BF400D0D0D000D001D002D003D004D005D0067C
:101C0400D007D083D082D0F0D0E0D02132C021C020
:101C1400E0C0F0C082C083C007C006C005C004C0D5
:101C240003C002C001C000C0D075D000900215E00E
:101C3400FEA3E04E600E900215E0F8A3E0F5838861
:101C440082120069D0D0D000D001D002D003D004D9
:101C5400D005D006D007D083D082D0F0D0E0D021F8
:101C6400321224861201B31202AD80FB7582002267
:101C7400AFF0AE83E582900161F0EEA3F0EFA3F044
:101C8400900161E0F540A3E0F541A3E0F542AA40EC
:101C9400AB41AC4290015CE0F8A3E0F9A3E0FF9013
:101CA400015FE0F543A3E0F544AD43AE441543744E
:101CB400FFB543021544ED4E6020888289838FF07E
:101CC4001229CFFEA3A882A9838A828B838CF0EE8B
:101CD4001224BAA3AA82AB8380CF85408285418334
:101CE4008542F022AC82AD83900165E0FEA3E0FF63
:101CF400BE000360121F0F900164E08C828D83127A
:101D040024BAA3DEFADFF88C828D8322E582FF9069
:101D14002E8993FEEF902E6193FF7001229001674C
:101D2400E0FD701BBF0209EEF4FC5292EC529322C8
:101D3400BF0402800122EEF4FC5296EC529722BDBD
:101D44000214BF0207EE4292EE429322BF0439EE20
:101D54004296EE429722BD0116BF0208EEF452925B
:101D6400EE429322BF0421EEF45296EE429722BD36
:101D74000316BF0208EE4292EEF4529322BF040807
:101D8400EE4296EEF4FE529722AF82BF0102800F1C
:101D9400BF02028013BF03028017BF0425801BE526
:101DA400C620E21E539DFB22E5C620E315539DF792
:101DB40022E5C630E20C539DFB22E5C630E3035313
:101DC4009DF722E582FF902E3993FEEF902E8993A2
:101DD400FDEF902E6193FF7003F58222EE600D8E6D
:101DE40082C007C005121D8DD005D0077E00BF023A
:101DF40002800ABF03028009BF040C8008AE9080F1
:101E040006AEA08002AEB0ED5E600475820122755C
:101E1400820022E582FF902E3993FEEF902E899363
:101E2400FDEF902E6193FFEE600D8E82C007C0051A
:101E3400121D8DD005D007A2AFE433FEC2AFBF029E
:101E440002800ABF03028017BF0436802490016811
:101E5400E07007EDF4FF52908027ED4290802290CD
:101E64000168E07007EDF4FF52A08015ED42A080F8
:101E740010900168E07007EDF4FF52B08003ED426A
:071E8400B0EE6002D2AF22B4
:101E8C00E582902EB193FFBFFF0475820022759AF4
:101E9C000974FC5580FE74035F4EF580D284208457
:101EAC00FD859F8222AF829001677401F08F82C002
:101EBC0007121D10D007900169E0FDA3E0FE4D70E4
:101ECC000A900168E4F08F82021E178D038E047451
:101EDC00FF2C500B9001687401F08F82021E17EFDB
:101EEC00902E3993FA24FB4054EA2A901EFB7380FF
:101EFC004C800680158024803353C6FB439D0443DD
:101F0C009D10E59D30E4FB8D9C2253C6F7439D0844
:101F1C00439D10E59D30E4FB8D9B2243C604439DFD
:101F2C0004439D10E59D30E4FB8D9C2243C6084381
:101F3C009D08439D10E59D30E4FB8D9B22C3EB94E3
:101F4C0080EC9400500A900168E4F08F82021E1716
:0B1F5C009001687401F08F82021E17D4
:101F6800AE82AF8390016BE0FBA3E0FCA3E0FD7AB7
:101F78000090016EE0F9890019E8603F8B828C833C
:101F88008DF01229CFF8A3AB82AC83C007C006C07E
:101F980005C004C003C002C001121FA68007C00606
:101FA800C007888222A882D001D002D003D004D0F2
:101FB80005D006D007E860030A80BB8A8222AE8279
:101FC800AF8390016FE0FBA3E0FCA3E0FD90016FFD
:101FD800E0F5F0A3E045F07003F582227A008B82E9
:101FE8008C838DF01229CFF9A3AB82AC83E9F8601A
:101FF8002CC007C006C005C004C003C00212200AD6
:102008008007C006C007888222A982D002D003D0E8
:1020180004D005D006D007E960030A80C18A82226D
:10202800AE82AF83900172E0FAA3E0FBA3E0FCA3C9
:10203800E0FD90017AEAF0EBA3F0ECA3F0EDA3F059
:1020480090017E740AF08E828F830220B9AE82AF2F
:1020580083900176E0FAA3E0FBA3E0FCA3E0FD9007
:1020680001A0EAF0EBA3F0ECA3F0EDA3F09001A43B
:10207800740AF08E828F830221A2AE82AF83C007DA
:10208800C00612208F8008C006C00775820D22ADD9
:1020980082D006D007C007C0051220A68008C00657
:1020A800C00775820A22AE82D005D007EE2DF582D0
:1020B8002285822285832390019FE4F090017EE0AF
:1020C800FDBD0200500690017E740AF090017EE08A
:1020D800F5247B9F7C0190017AE0F525A3E0F526A5
:1020E800A3E0F527A3E0F528852429752A00752B98
:1020F80000752C00C004C003C029C02AC02BC02C06
:102108008525828526838527F0E52812262FA88233
:10211800E58124FCF581C000C029C02AC02BC02C51
:102128008525828526838527F0E5281226F1AA824F
:10213800AD83AEF0FFE58124FCF581D000D003D05B
:102148000490017AEAF0EDA3F0EEA3F0EFA3F01B00
:10215800BBFF011C8B068C07B80A00500888057461
:10216800302DFD8004743728FD8E828F83EDF0902A
:10217800017AE0F5F0A3E042F0A3E042F0A3E045E5
:10218800F060030220DE90016FEBF0ECA3F0E4A313
:10219800F0852282852383021FC685822D85832EA2
:1021A8009001A4E0FD701B9001A0E0F9A3E0FAA360
:1021B800E0FBA3E0FC1221C28007C02DC02E89825B
:1021C8002222BD0A02800302226F9001A0E0F9A337
:1021D800E0FAA3E0FBA3E0FC30E76FC004C003C053
:1021E80002C0011221F08008C02DC02E75822D2258
:1021F800A882D001D002D003D004882F9001A0C3B8
:10220800E499F0E49AA3F0E49BA3F0E49CA3F09093
:1022180001A0E0F530A3E0F531A3E0F532A3E0F545
:102228003390017AE530F0E531A3F0E532A3F0E52B
:1022380033A3F090017E740AF0852D82852E8312D7
:1022480020B9AF82E52F2FF5822290017AE9F0EAD2
:10225800A3F0EBA3F0ECA3F090017E740AF0852DB7
:1022680082852E830220B99001A0E0FBA3E0FCA3A5
:10227800E0FEA3E0FF90017AEBF0ECA3F0EEA3F010
:10228800EFA3F090017EEDF0852D82852E8302204C
:01229800B98C
:10229A00C0D075D00808B8000D09B900090ABA00FB
:1022AA00050BBB00010CD0D032A2AFC2AFA808A95F
:1022BA0009AA0AAB0BAC8A8588F092AF30F5127482
:1022CA00012C600D08B8000909B900050ABA000115
:1022DA000BC3EC9406FCE8FEE9FFC003C00275F0EC
:1022EA0077E8A4F8ADF075F077E9A42DF9E435F0B4
:1022FA00FD75F077EAA42DFAE435F0FD75F077EB79
:10230A00A42DFBE435F0FDEE29F9EF3AFAD0E03BD3
:10231A00FBD0E03DFD75F003ECA4FCE5F0C313FE31
:10232A00EC13FC7F00EC28F8EE39F9EF3AFAEF3BB0
:10233A00FBEF3DFDC3ED13FDEB13FBEA13F5F0E9EB
:10234A0013F583E813F582EB22A2AFC2AFA808A95E
:10235A0009AA0AAB0BAC0C92AF75F030E8A4A8F04E
:10236A0075F030E9A428ADD0F582A8F075F030EA0E
:10237A00A48DD038ADD0F583A8F075F030EBA48DDC
:10238A00D038ADD0F9A8F075F030ECA48DD03889EA
:10239A00F02285823485833585F036F5371222B3EB
:1023AA0085823885833985F03AF53BE534453545EC
:1023BA00364537700122A834A935AA36AB37853895
:1023CA003C85393D853A3E853B3FE8494A4B60DBCF
:1023DA00C003C002C001C0001222B3AC82AD83AEFA
:1023EA00F0FFD000D001D002D003ECC3953CFCED45
:1023FA00953DFDEE953EFEEF953FFFC3EC94E8ED6B
:10240A009403EE9400EF940040A118B8FF0919B99B
:10241A00FF051ABAFF011B883489358A368B37744F
:10242A00E8253CF53C7403353DF53DE4353EF53E83
:10243A00E4353FF53F853C38853D39853E3A853F51
:03244A003B80874D
:10244E00AE82AF83C374019EE49F40022200BF00A0
:10245E0005BE02022200C374039EFE74009FFFBEDF
:10246E000004BF0001220000000000000000000E6A
:10247E00BE00F30FBF00F52275A15575A1AA74F821
:10248E0055B94405F5B975A10090138812244D7500
:10249E009E5D759D0074F055894402F58953C9EF10
:1024AE00758C06C28DD2A9D28CD2AF2220F71130F4
:1024BE00F6138883A88220F509F6A8837583002277
:1024CE0080FEF280F5F022C01C85811CC082C08384
:1024DE00E5812405F581AF1C0FE51C2403F8A60742
:1024EE00087600087640E51C24FCFD7E007F40E562
:1024FE001C2406F9A81C088604E51C24FCF8860397
:10250E008CF0EBA4F709A7F0E51C240604F9870468
:10251E00A81C08860374012DFAE43EFE8A828E837F
:10252E008FF01229CF8BF0A4FBE51C2403F8740165
:10253E0026FDE40836FE0886078D828E838FF01204
:10254E0029CFFDE51C24FCF886078DF0EFA42B2C7B
:10255E00F7E51C2406F987060987078E828F838587
:10256E001C81D01C22AC82AD83AEF0FF900176ECC4
:10257E00F0EDA3F0EEA3F0EFA3F09028F3022055B8
:10258E00AC82AD83AEF0FF9001A6E0FB9001A0EC13
:10259E00F0EDA3F0EEA3F0EFA3F09001A4EBF0901A
:1025AE0028F30221A2AC82AD83AEF0FF900172EC53
:1025BE00F0EDA3F0EEA3F0EFA3F09028F3022028A5
:1025CE00AC82AD83AEF0FF9001A7E0FB9001A0ECD2
:1025DE00F0EDA3F0EEA3F0EFA3F09001A4EBF090DA
:1025EE0028F30221A2AD82AE83AFF090016FEDF021
:1025FE00EEA3F0EFA3F09028F3021FC6AD82AE83D8
:10260E00AFF09001A8E0FC90016BEDF0EEA3F0EFBF
:0E261E00A3F090016EECF09028F3021F6832DA
:01262D00327A
:10262F00C01C85811CAC82AD83AEF0FF05817B00A1
:10263F00A81C087600E51C24FAF8080808E62354BD
:10264F0001FA704CE51C24FAF8E626F608E633F694
:10265F0008E633F608E633F6E51C24FAF8C3EC96E1
:10266F00ED0896EE0896EF0896501AE51C24FAF836
:10267F00080808E6C313F618E613F618E613F6185B
:10268F00E613F6800BA81C0806A81C08860380A575
:10269F00E51C24FAF8C3EC96ED0896EE0896EF08C1
:1026AF00964015E51C24FAF8ECC396FCED0896FD50
:1026BF00EE0896FEEF0896FFE51C24FAF8080808C6
:1026CF00E6C313F618E613F618E613F618E613F634
:1026DF008B021BEA70BA8C828D838EF0EF1581D03E
:1026EF001C22C01C85811CC082C083C0F0C0E07A50
:1026FF00007B007E007F007D20A81C08080808E6EC
:10270F00235401FCA81C08E626F608E633F608E673
:10271F0033F608E633F6EA2AFAEB33FBEE33FEEF35
:10272F0033FFEC6003430201E51C24FAF8C3EA9679
:10273F00EB0896EE0896EF0896401CE51C24FAF875
:10274F00EAC396FAEB0896FBEE0896FEEF0896FFA3
:10275F00A81C08E64401F6DDA0A81C08868208869E
:10276F00830886F008E6851C81D01C22ABF0A2AF4F
:10277F00E433FEC2AFE0A37A0833D2B44002C2B44E
:10278F007902D9FEC2B4DAF1DBEBEE6002D2AF22EE
:10279F0022AF82BF0200503EEF75F002A42417FD56
:1027AF00740235F0FE9001A9E0FBA3E0FC8D828E50
:1027BF0083EBF0ECA3F0BF00028005BF0118800B84
:1027CF009001ABE024FF9288D2A8229001ABE0FFEA
:1027DF0024FF928AD2AA22AF82BF02005028BF00E4
:1027EF00028005BF01088004C2A88002C2AAEF754B
:1027FF00F002A42417FE740235F0FF8E828F8374CB
:07280F009FF07427A3F022E3
:102817009001ACE0F58222AC82AD83AEF0FFC0043C
:10282700C005C006C00790680075F08974091226B4
:10283700F1AC82AD83AEF0FFE58124FCF581EDC4F8
:10284700CCC4540F6CCC540FCC6CCCFDEEC454F0FC
:102857004DFDEFC4CEC4540F6ECE540FCE6ECEFFD7
:102867008C028D03C007C006C005C004740AC0E00F
:10287700E4C0E08A828B831229EBAA821581158135
:10288700D004D005D006D007C002740AC0E0E4C067
:10289700E0C0E0C0E08C828D838EF0EF1226F1ACB1
:1028A70082AD83AEF0FFE58124FCF581D002BA0545
:1028B70000400D0CBC00090DBD00050EBE00010F48
:1028C700C29FD29EC29DC2CDC2CC438780740F5592
:1028D700894420F58943C9A0C3E49CF58DD28EC2F3
:1028E70099D29CD2AC9001AC7401F022AF82A2AF16
:1028F700E433FEC2AF90021DE0FD90021EE0FCED46
:10290700B5041020040DD2048F99EE6002D2AF7582
:1029170082012290021DE0FD0D53050F7B007C0014
:1029270090021EE0FAEDB50235EE6002D2AF0BBBA6
:1029370000010C900005C007C006C005C004C00315
:1029470012244DD003D004D005D006D0078B018CBC
:1029570002C3E99420EA944E40C675820022900291
:102967001DE024BDF582E43401F583EFF090021DEC
:10297700EDF0EE6002D2AF758201222004FD2290B5
:10298700021BE02410FF90021CE0FEEFC39EFF53E2
:10299700070F8F822290021BE02410FF90021CE099
:1029A700FEEFC39E540F601C90021CE024ADF5821D
:1029B700E43401F583E0FF90021CE0FE0E740F5E25
:0829C700F08F822275820022CC
:1029CF0020F71430F6148883A88220F507E6A88331
:1029DF0075830022E280F7E49322E022C01C8581F8
:1029EF001CAE82AF837D007C00E51C24FCF808E65A
:1029FF00235401FB702FE51C24FCF8E626F608E6AD
:102A0F0033F6E51C24FCF8C3EE96EF08965011E55B
:102A1F001C24FCF808E618C313C613C608F6800575
:102A2F000C8C0580C4E51C24FCF8C3EE96EF0896C9
:102A3F00400DE51C24FCF8EEC396FEEF0896FFE56B
:102A4F001C24FCF808E618C313C613C608F68D0439
:0B2A5F001DEC70D18E828F83D01C22F2
:102A6A0090021BE0FF7E000FBF00010E7410C0E051
:102A7A00E4C0E08F828E83122C4CAE8215811581C0
:102A8A0090021CE0FFEEB507012290021BE024AD84
:102A9A00F582E43401F583E599F090021BEEF02209
:102AAA0030044A90021DE0FF90021EE0FEEFB506D8
:102ABA0005A204C2042290021EE024BDF582E43479
:102ACA0001F583E0F59990021EE0FF7E000FBF003A
:102ADA00010E7410C0E0E4C0E08F828E83122C4C89
:0E2AEA00AE82AF831581158190021EEEF022A0
:102AF80090021FE0FF7E000FBF00010E7410C0E0BF
:102B0800E4C0E08F828E83122C4CAE821581158131
:102B1800900220E0FFEEB507012290021FE024CDCD
:102B2800F582E43401F583E5C1F090021FEEF0224E
:102B380030054A900221E0FF900222E0FEEFB50640
:102B480005A205C20522900222E024DDF582E434C4
:102B580001F583E0F5C1900222E0FF7E000FBF007F
:102B6800010E7410C0E0E4C0E08F828E83122C4CFA
:0E2B7800AE82AF8315811581900222EEF0220D
:102B8600C01C85811CAE82E583FF33E433FD6009FA
:102B9600C3E49EFBE49FFC80048E038F04E51C24A3
:102BA600FCF808E633E433FF600FE51C24FCF8C3A9
:102BB600E496FA08E496FE800AE51C24FCF88602F0
:102BC600088606C007C005C002C0068B828C831229
:102BD6002BFCAC82AE8315811581D005D007EF6D35
:102BE600600DC3E49CFDE49EFF8D828F8380048C80
:102BF600828E83D01C22C01C85811CAE82AF837C52
:102C0600007D007B10EF235401FAEE2EFEEF33FF1A
:102C1600EC2CFCED33FDEA6003430401E51C24FCC7
:102C2600F8C3EC96ED08964010E51C24FCF8ECC3BE
:102C360096FCED0896FD430601DBCA8E828F83D093
:102C46001C2275820022C01C85811CAE82E583FF92
:102C560033E433FD6009C3E49EFBE49FFC80048EED
:102C6600038F04E51C24FCF808E630E70FE51C2476
:102C7600FCF8C3E496FE08E496FF800AE51C24FCF3
:102C8600F88606088607C005C006C0078B828C83B7
:102C96001229EBAE82AF8315811581D005ED600D4B
:102CA600C3E49EFCE49FFD8C828D8380048E828F1C
:042CB60083D01C2289
:102CBA001201100100000008494287420100010286
:102CCA0003010902490002010080640904000002AC
:102CDA0003010100092110010001227C000705817E
:102CEA000309000A0705010309000A090401000291
:102CFA0003000000092110010001221900070582C2
:102D0A00032000080705020320000805010906A19F
:102D1A00018501050719E029E715002501950875C0
:102D2A00018102950175088103950675081500262B
:102D3A00FF000507190029E781000508190129057F
:102D4A0015002501950575019102950175039103F9
:102D5A00C005010902A1010901A10085020509199D
:102D6A000129031500250195037501810295017555
:102D7A0005810305010930093109381581257F7557
:102D8A000895038106C0C00660FF0961A1010962B6
:102D9A00150026FF0095207508810609639183C0F6
:102DAA0004030904120343004800350035003200C9
:102DBA0051004D004B00180351006D006B004B0091
:102DCA006500790062006F00610072006400100300
:0E2DDA00350042007200650065007A00650059
:102DE80056494120434D443A004C69676874204372
:102DF800483A0020547970653A002056616C3A00D0
:102E0800536574206272696768746E6573733A00FB
:102E1800524742204F464600524742204F4E0053E9
:102E28006574206875653A00536574207361743A57
:012E38000099
:102E39000000000000000000000000000000000188
:102E49000000000000000000000000000000030472
:102E5900000002000000000001010101010101015F
:102E6900000002020202020202020000030303033D
:102E7900030303030000040404040404040400001D
:102E890001020408102040800000010204081020FB
:102E99004080000001020408102040800000010267
:102EA9000408102040800000FFFFFFFFFFFFFFFF25
:102EB900FFFFFF00FFFF0102FFFFFFFFFFFFFFFF13
:102EC900FFFFFFFFFFFFFFFF03FFFFFFFFFFFFFF05
:102ED900651C000000000000000000000000000068
:0F2EE900000000000000000000000000000000DA
:012EF80000D9
:072EF90000000000000000D2
:012F000000D0
:022F01000000CE
:042F03009F279F273E
:042F070000000000C6
:042F0B0000000000C2
:00000001FF
