:0600000002006B02133345
:03000B00021730A9
:030013000213864F
:01001B0032B2
:0300230002129B2B
:03002B0002196D4A
:01003300329A
:03003B000213D9D4
:0300430002125C4A
:01004B003282
:030053000212E7AF
:01005B003272
:0300630002196B14
:0300660002142D54
:02006900E4733E
:0D006B0075812D121B1FE5826003020066E7
:100078007931E94400601B7A01901DF4788375A0FA
:1000880001E493F2A308B8000205A0D9F4DAF275E6
:02009800A0FFC7
:06009A00E478FFF6D8FD3A
:1000A0007800E84400600A790A75A001E4F309D8F1
:1000B000FC7879E84400600C790190010AE4F0A32F
:0400C000D8FCD9FA95
:0A00C40090010BE4F0900127E4F036
:0E00CE007808E4F608F608F608F6780C7600D6
:0200DC00C2025E
:0200DE00C2035B
:0300E000020066B5
:1000E400E58290010AF0E0F5821216547E008E83B8
:1000F4002290010CE4F075822012158FE5826006CF
:1001040090010C7401F075822112158FE58260084C
:1001140090010CE043E002F090010DE4F090010B3B
:10012400E0FF700A90010CE0FEBE01028034BF01C2
:1001340003EF8001E4FE600A90010CE0FDBD0302C0
:100144008020E4BF030104FD600A90010CE0FCBCC4
:100154000202800EE4BF020104FC600E90010CE078
:10016400700890010D7401F08036EF700A90010C54
:10017400E0FFBF02028023EC600A90010CE0FFBFA5
:1001840003028016ED600A90010CE0FFBF010280BB
:1001940009EE600C90010CE0700690010D74FFF004
:1001A40090010CE090010BF090010DE0F582221219
:1001B400052A7F017E00BE1800501B8E82C007C036
:1001C4000612124CAD82D006D007BDFF0280047F18
:1001D4000080030E80E0EF700302028690010EE4BB
:1001E400F090010F7404F0900110E4F09001117488
:1001F40005F0900112E4F09001137406F0900114DC
:10020400E4F09001157407F0900116E4F0900117E2
:100214007408F0900118E4F09001197409F0900149
:100224001AE4F090011B740AF090011CE4F09001B0
:100234001D740BF090011EE4F090011F740CF090FB
:100244000120E4F0900121740DF0900122E4F0907B
:100254000123740EF0900124E4F0900125740FF052
:100264007F00BF1800501BEF240EF582E43401F523
:1002740083E090012FF08F82C007121216D0070F6F
:1002840080E090013B7402F07582111214D8900141
:100294003B7402F07582201214D890013B7402F072
:1002A4007582210214D8120F011217E9AC82AD83B2
:1002B400900189E0F8A3E0F9A3E0A3E0ECC398FC83
:1002C400ED99FDC3EC9405ED6480948050012212F5
:1002D40017E9AC82AD83AEF0FF900189ECF0EDA399
:1002E400F0EEA3F0EFA3F0120E94AF82BF010280F0
:1002F40003BF020790018DE4F0800690018D740124
:10030400F075821112158FAF82900126EFB40100AF
:10031400E433F0900126E0FF900188E0FEEFB5069B
:1003240002801F900188EFF090018DE0FE90012C77
:10033400E4F090012DEEF090012EEFF075820012A2
:1003440010D51200F5E582FF70030203E390012744
:10035400E02401F0E0FEBE040050030203E3900138
:1003640027E4F0C364808FF063F08095F0503990F7
:10037400018DE0FF90012C7401F090012DEFF090BD
:10038400012E7401F07582001210D590018DE0FFEA
:1003940090012C7401F090012DEFF090012EE4F007
:1003A4007582001210D5803790018DE0FF90012CEA
:1003B4007402F090012DEFF090012E7401F075821B
:1003C400001210D590018DE0FF90012C7402F09082
:1003D400012DEFF090012EE4F07582001210D57516
:1003E400820B1200E4AE82AF83900185E0FDE070E1
:1003F4002F8E038F04C374F59BE49C5023900185D6
:100404007401F090018DE0FC90012CE4F090012D3A
:10041400ECF090012E7401F07582011210D5802B3E
:10042400ED6028C3EE94E1EF9400501F900185E441
:10043400F090018DE0FF90012CE4F090012DEFF09D
:1004440090012EE4F07582011210D575820E12000F
:10045400E4AE82AF83900186E0FDE070308E038FBE
:1004640004C374F59BE49C50249001867401F090BD
:10047400018DE0FC90012C7401F090012DECF090C2
:10048400012E7401F07582011210D5802CED6029C3
:10049400C3EE94E1EF94005020900186E4F09001C3
:1004A4008DE0FF90012C7401F090012DEFF090018C
:1004B4002EE4F07582011210D575820F1200E4AE9D
:1004C40082AF83900187E0FDE0702E8E038F04C31A
:1004D40074F59BE49C50229001877401F090018D87
:1004E400E0FC90012C7402F090012DECF090012EB0
:1004F4007401F07582010210D5ED6029C3EE94E118
:10050400EF94005020900187E4F090018DE0FF907B
:10051400012C7402F090012DEFF090012EE4F0759F
:0605240082010210D52245
:10052A00120D51120D7B120D6A75DD0075D300751F
:10053A00D5002275D30074FC55D24402F5D290013D
:10054A008FE4F02275D50074FC55D44402F5D4909A
:10055A000190E4F02230DE1190000AE0FFBF0109A9
:10056A0090000BE0FF90018EF02230DE03020EB500
:10057A0022AF82900129E07003F582227D007E007D
:10058A0090018FE060240DBD00010E900005C007A8
:10059A00C006C0051218E3D005D006D007C3ED94F3
:1005AA0050EE94C340DA75820022BF013990004AA6
:1005BA007401F07E00BE080050278E047D0074414D
:1005CA002CFCE43DFDEC240AFCED3400FDEE249104
:1005DA00F582E43401F583E0FB8C828D83F00E8092
:1005EA00D475D309804DBF023990004A7402F07E57
:1005FA0000BE040050278E047D0074412CFCE43DAB
:10060A00FDEC240AFCED3400FDEE2499F582E43475
:10061A0001F583E0FB8C828D83F00E80D475D305BF
:10062A008011BF080B90004A7408F075D32180032B
:10063A0075D30090018F7401F053D2FC75820122A8
:10064A00900129E07003F582227E007F00900190DC
:10065A00E060200EBE00010F900005C007C0061220
:10066A0018E3D006D007C3EE9450EF94C340DE756A
:10067A0082002275D5209001907401F053D4FC7544
:10068A00820122AF82900191E04207900191EFF03E
:10069A0075820112057B75820122AF82900191E079
:1006AA00FEEFF45206900191EEF075820112057B7D
:1006BA0075820122AF82900193E0FEB50702805C49
:1006CA00900194E0FEB507028052900195E0FEB5D4
:1006DA0007028048900196E0FEB50702803E90012D
:1006EA0097E0FEB507028034900198E0FEB5070254
:1006FA00802A7E027D02ED2491FBE43401FC8B8288
:10070A008C83E070088B828C83EFF080080D8D0655
:10071A00BD080040E1BE08047582002275820112FC
:10072A00057B75820122AF827E02EF6016EE24916C
:10073A00FCE43401FD8C828D83E0B507068C828D42
:10074A0083E4F00EBE080040E175820112057B7554
:10075A008201227F00BF0800500FEF2491F582E446
:10076A003401F583E4F00F80EC75820102057B9079
:10077A00018EE0F58222AF82900199E04207900152
:10078A0099EFF075820212057B75820122AF829081
:10079A000199E0FEEFF45206900199EEF07582029B
:1007AA0012057B75820122AF82C00712078090274B
:1007BA00101218E3D0078F8212079775820122AFB1
:1007CA008290019AEFF0900128E090019BF07582E7
:1007DA000212057B75820122AF8290019CEFF075AF
:0907EA00820212057B75820122D6
:1007F400AFDBBF08028003020BDB900007E0FE7F43
:1008040000900006E0FD7C004FF510EC4EF5117FE2
:1008140000900001E0F51290019DE4F0900000E0EA
:10082400FE54606027900000E0FE5306607D00BE29
:100834002005BD0002800BBE400DBD000A7FFF02F3
:100844000BDD7FFF020BDD7FFF020BDDE51224F4DD
:100854005003020BD7E512240B83F582E512241012
:1008640083F583E473B9E7D7A7D7B181D7BEDBDDBE
:10087400DD0B090B0A0B09080B09090B0B9000038C
:10088400E0FEBE01028012BE02028018BE03028096
:100894001EBE2202806F02094175131075141C7F5D
:1008A4001202094375132275141C7F4902094385FA
:1008B4001082851183120E43900002E070087513B4
:1008C4000075141D8034900002E0FEBE010875130B
:1008D4004675141D8024900002E0FEBE02087513C4
:1008E4002075141D8014900002E0FEBE03087513E9
:1008F4000475141D80047FFF80458513828514834D
:10090400E493FF803A900002E0702E900004E070BF
:100914000E75136B75141C901C3BE493FF802090A0
:100924000004E0FEBE010E7513E775141C901C5BF9
:10093400E493FF800A7FFF80067FFF80027FFFBF72
:10094400FF03020BDD8F057E00C3ED9510EE9511BC
:1009540050048D108E11AD10AE11C3ED9408EE94B9
:1009640000920040067B087C008004AB10AC118B25
:10097400077C00C3EC9F50198C027B00EC2513F517
:1009840082E43514F583E493F98A828B83F00C8036
:10099400E28F037C00EDC39BFDEE9CFE8D108E1157
:1009A400EF2513F513E43514F514020BDD90000262
:1009B400E0FE8E10751100020BDD900129E090001D
:1009C40000F0AD10AE11C3ED9401EE94005003029B
:1009D4000BDD7F01020BDD900002E0FE900129F0A7
:1009E400020BDD900000E0541F702F900003E0FD27
:1009F4007E00900002E0FC7B004206EB4205BE0153
:100A040014BD0011901C29E493FE30E503020BDDB4
:100A14007FFF020BDD7FFF020BDD900000E0FE5341
:100A2400061F7D00BE0277BD0074900004E0FEBE88
:100A34000102805FBE02028049BE03028033BE040D
:100A440002801DBE81028040BE8202802ABE8302D3
:100A54008014BE844474BC55DE4402F5DE020BDD12
:100A640053DE73020BDD74BC55D64402F5D6020B7B
:100A7400DD53D673020BDD74BC55D44402F5D402A5
:100A84000BDD53D473020BDD74BC55D24402F5D292
:100A9400020BDD53D273020BDD7FFF020BDD7FFF00
:100AA400020BDD900000E0541F702F900003E0FD66
:100AB4007E00900002E0FC7B004206EB4205BE0192
:100AC40014BD0011901C29E493FE30E503020BDDF4
:100AD4007FFF020BDD7FFF020BDD900000E0FE5381
:100AE400061F7D00BE0205BD00028003020BB59007
:100AF4000003E0FD7E00900002E0FC7B004206EB78
:100B04004205EE4D6003020BB1900005E0FD7E004E
:100B1400900004E0FC7B004206EB4205BE0106BDEA
:100B24000003020BA5BE0205BD00028060BE0305E2
:100B3400BD00028044BE0405BD00028028BE8105BC
:100B4400BD00028052BE8205BD00028036BE830510
:100B5400BD0002801ABE8451BD004E74BF55DE44F0
:100B640003F5DE8074747F55DE440CF5DE806A7410
:100B7400BF55D64403F5D68060747F55D6440CF532
:100B8400D6805674BF55D44403F5D4804C747F5535
:100B9400D4440CF5D4804274BF55D24403F5D280BA
:100BA40038747F55D2440CF5D27FFF802C7FFF80B0
:100BB400287FFF8024900000E4F0900001F0AD1045
:100BC400AE11C3ED9402EE940040047F02800AAF9C
:100BD4001080067FFF80027FFFBFFF077512FF753D
:100BE400DCCF22EF24F740068FDD75DCC02275DDF3
:100BF4000075DCC0227405B51202805D7406B5125E
:100C040066AE10AF11C3EE9408EF94009201400653
:100C14007C087D008004AC10AD117D00C3ED9C50B8
:100C2400198D027B00ED2513F582E43514F583E478
:100C340093F98A828B83F00D80E28C037D00EEC3EE
:100C44009BFEEF9DFF8E108F11EC2513F513E435F9
:100C540014F5148CDD63DC4022E5E35480FFE510D9
:100C64004FF5E375DC022275DD0075DC022275DDCB
:100C74000043DC022220D903020D2AE5D9540FFFD8
:100C8400ADD95305307E00BD0005BE0002801CBDF9
:100C94001005BE0002803CBD2005BE00028049BD97
:100CA4003006BE0003020D10020D28EF24FB500392
:100CB400020D28EF2F900CBD738008800C800F80EC
:100CC400638061120C72020D2812055F80561205B2
:100CD400748051EF24FB404CEF2F900CE27380445E
:100CE40080428040803E803CEF24FB4037EF2F90D1
:100CF4000CF7738008800B800E80298027120BF973
:100D0400802212053D801D12054E8018EF24FB4001
:100D140013EF2F900D1B73800880098007800580D6
:100D2400031207F4C2D930D81775DC0275D21275D4
:100D3400D41275E300C2DAC2D9C2D8900129E4F012
:100D440010DA0122E5DA20E20375D8FF2275E20009
:100D540053E27F43E22975E30053E2BF53D1FB75AD
:100D6400D18043D1012243E10443E10243E1014341
:100D7400D81FD2EAD2AF227E007F008EEC8FED7EA8
:100D84000A7F008EEE8FEF7E8A7F008EE48FE575FA
:0F0D9400D21275D41275EAC075EB0C75DC022211
:100DA40090019EE0FFBF03005001229001A1E0FFEB
:100DB400BF020040119001A0E0FEBE010040079078
:100DC40001A47402F02290019EE0FEB50707900191
:100DD400A47401F022BE05209001A2E0FCA3E0FD72
:100DE400BCFF15BD0012BF010F90019FE0FDBD02C5
:100DF400079001A47403F022BE0412EF700F900157
:100E04009FE0FEBE02079001A47404F022EF701765
:100E140090019FE0FEBE030F9001A0E0FEBE01071B
:100E24009001A47401F022BF0100401290019FE0E0
:100E3400700C9001A0E070069001A47401F022AE41
:100E440082AF8390019EE0FD0D90019EEDF0900134
:100E5400A2EEF0EFA3F0BE0210BF000D90019FE0E0
:100E6400FD0D90019FEDF08024BE0410BF000D9095
:100E740001A0E0FD0D9001A0EDF08011BEFF0EBFBA
:100E8400000B9001A1E0FF0F9001A1EFF0020DA46F
:100E94009001A4E0F58222900138E4F090013974C5
:0E0EA40007F0E4A3F090019E75F0000214B078
:100EB20002064A9001A57401F022E58275F006A4AB
:100EC200FF90012AE075F003A42FFE90012BE02E83
:100ED20025E0FEF582C00612124CAF82D0068F05C5
:100EE2007F000E8E82C007C00512124CAE82D00562
:100EF200D0077C00EE4207EC42058F828D83229060
:100F020001A5E07001229001A5E4F0900130748AFD
:100F1200F07400A3F0E4A3F09001337420F0E4A392
:100F2200F09000CA75F00012143C90008AE0FF2491
:100F3200EC50030210CCEF240A83F582EF241883CD
:100F4200F583E473CC6E7CD2A0D1CCCCCCCCCCCC0F
:100F5200121AD2D2CC262F83100F0F100F0F10109F
:100F62001010101010101010101010109000CB74F0
:100F720001F09000CCE4F00210D27F02BF200040CA
:100F8200030210D28F057E0074402DFDE43EFEED7B
:100F9200248AF582EE3400F583E4F00F80DE9000BF
:100FA2008BE0FF90008CE0FE90008DE0FD90012A26
:100FB200EEF090012BEDF08F82120EBCAE82AF8369
:100FC2008F059000CEEDF09000CFEEF00210D2909F
:100FD200008BE0FF90008CE0FE90008DE0FDEF754D
:100FE200F006A4FFEE75F003A42F2D25E0FE90007D
:100FF2008EE090012FF08E82C006121216D0060EDD
:1010020090008FE090012FF08E821212160210D201
:101012009000CBE4F00210D29000CCE4F09000CD2E
:10102200F00210D29000CB7402F00210D290008B2A
:10103200E07F0090008CE0420790008DE0FE7D0092
:10104200C3ED9E40030210D28D037C0074442BFB3F
:10105200E43CFCEB248AFBEC3400FCED2FF582C06F
:1010620007C006C005C004C00312124CAA82D003F6
:10107200D004D005D006D0078B828C83EAF00D8095
:10108200BF90008BE07F0090008CE0420790008DC3
:10109200E0FE7D00C3ED9E5037ED2FFC8D027B00FC
:1010A20074042AFAE43BFBEA248AF582EB3400F565
:1010B20083E090012FF08C82C007C006C005121297
:1010C20016D005D006D0070D80CA9000CA74FFF072
:1010D200020EB2AF8290012DE0FE90012CE0FD9055
:1010E200012AEFF090012BEDF08E82120EBC858268
:1010F20015858316AD16BD01005003021202ED24C0
:10110200E05003021202ED20E40302118D90012E41
:10111200E0FC7B00BB040040030212028BF005F0EE
:1011220079017A008006E929F9EA33FAD5F0F78DD8
:10113200007F00E85201EF5202E94A604BEC602561
:101142008B0774042FF5F005F07401800225E0D5B9
:10115200F0FBF582C005C004C00312068DD003D097
:1011620004D00580238B0774042FF5F005F0740179
:10117200800225E0D5F0FBF582C005C004C0031251
:1011820006A4D003D004D0050B808990012EE0FF85
:101192007E00BE040050698EF005F07B017C008069
:1011A20006EB2BFBEC33FCD5F0F78D017A00E9520C
:1011B20003EA5204EB4C6045EF60228E048CF0058A
:1011C200F07401800225E0D5F0FBF582C007C0066D
:1011D200C00512068DD005D006D00780208E048C63
:1011E200F005F07401800225E0D5F0FBF582C0071E
:1011F200C006C0051206A4D005D006D0070E809204
:1012020090012EE06007AE158E820206BEAE158EEC
:04121200820207301D
:10121600AF82BF800040012275A15575A1AA43B1D6
:101226000475A1007585C0EF2FF58490012FE0F5B8
:101236008EE58630E60375869A75A15575A1AA5383
:10124600B1FB75A10022AF827585C0EF2FF58475BD
:06125600868E858E8222C7
:10125C00C021C0E0C0F0C082C083C007C006C0057A
:10126C00C004C003C002C001C000C0D075D00012C1
:10127C000C79D0D0D000D001D002D003D004D0054E
:10128C00D006D007D083D082D0F0D0E0D02132C0AD
:10129C0021C0E0C0F0C082C083C007C006C005C03A
:1012AC0004C003C002C001C000C0D075D00030988B
:1012BC0005121A03C298309905121A43C299D0D05C
:1012CC00D000D001D002D003D004D005D006D00776
:1012DC00D083D082D0F0D0E0D02132C021C0E0C089
:1012EC00F0C082C083C007C006C005C004C003C0E4
:1012FC0002C001C000C0D075D00030C005121A91D8
:10130C00C2C030C105121AD1C2C1D0D0D000D00198
:10131C00D002D003D004D005D006D007D083D08221
:10132C00D0F0D0E0D02132C021C0E0C0F0C082C0EB
:10133C0083C007C006C005C004C003C002C001C002
:10134C0000C0D075D0009001A8E0FEA3E0FFC0075C
:10135C00C0068E828F83120069D006D007D0D0D001
:10136C0000D001D002D003D004D005D006D007D0D5
:10137C0083D082D0F0D0E0D02132C021C0E0C0F0C8
:10138C00C082C083C007C006C005C004C003C00231
:10139C00C001C000C0D075D0009001AAE0FEA3E04F
:1013AC00FFC007C0068E828F83120069D006D0075B
:1013BC00D0D0D000D001D002D003D004D005D006BC
:1013CC00D007D083D082D0F0D0E0D02132C021C061
:1013DC00E0C0F0C082C083C007C006C005C004C016
:1013EC0003C002C001C000C0D075D0009001A6E0BF
:1013FC00FEA3E04E600E9001A6E0F8A3E0F5838812
:10140C0082120069D0D0D000D001D002D003D00419
:10141C00D005D006D007D083D082D0F0D0E0D02138
:10142C003212191C1201B31202AA80FB758200221F
:10143C00AFF0AE83E582900135F0EEA3F0EFA3F0B0
:10144C00900135E0F518A3E0F519A3E0F51AAA18F8
:10145C00AB19AC1A900130E0F8A3E0F9A3E0FF90CF
:10146C000133E0F51BA3E0F51CAD1BAE1C151B7482
:10147C00FFB51B02151CED4E6020888289838FF00E
:10148C001219E7FEA3A882A9838A828B838CF0EEC3
:10149C00121950A3AA82AB8380CF85188285198339
:1014AC00851AF022AC82AD83900139E0FEA3E0FFF7
:1014BC00BE000360121F0F900138E08C828D8312E6
:1014CC001950A3DEFADFF88C828D8322E582FF901F
:1014DC001DA493FEEF901D7C93FF70012290013BA5
:1014EC00E0FD701BBF0209EEF4FC5292EC52932209
:1014FC00BF0402800122EEF4FC5296EC529722BDFE
:10150C000214BF0207EE4292EE429322BF0439EE60
:10151C004296EE429722BD0116BF0208EEF452929B
:10152C00EE429322BF0421EEF45296EE429722BD76
:10153C000316BF0208EE4292EEF4529322BF040847
:10154C00EE4296EEF4FE529722AF82BF0102800F5C
:10155C00BF02028013BF03028017BF0425801BE566
:10156C00C620E21E539DFB22E5C620E315539DF7D2
:10157C0022E5C630E20C539DFB22E5C630E3035353
:10158C009DF722E582FF901D5493FEEF901DA493CE
:10159C00FDEF901D7C93FF7003F58222EE600D8EA3
:1015AC0082C007C005121555D005D0077E00BF02BA
:1015BC0002800ABF03028009BF040C8008AE908031
:1015CC0006AEA08002AEB0ED5E600475820122759D
:1015DC00820022E582FF901D5493FEEF901DA49390
:1015EC00FDEF901D7C93FFEE600D8E82C007C00551
:1015FC00121555D005D007A2AFE433FEC2AFBF021F
:10160C0002800ABF03028017BF0436802490013C7D
:10161C00E07007EDF4FF52908027ED42908022900D
:10162C00013CE07007EDF4FF52A08015ED42A08064
:10163C001090013CE07007EDF4FF52B08003ED42D6
:07164C00B0EE6002D2AF22F4
:10165400E582901DCC93FFBFFF0475820022759A2A
:101664000974FC5580FE74035F4EF580D284208497
:10167400FD859F8222AF8290013B7401F08F82C06E
:10168400071214D8D00790013DE0FDA3E0FE4D7091
:101694000A90013CE4F08F820215DF8D038E0474FE
:1016A400FF2C500B90013C7401F08F820215DFEF88
:1016B400901D5493FA24FB4054EA2A9016C3738075
:1016C4004C800680158024803353C6FB439D04431D
:1016D4009D10E59D30E4FB8D9C2253C6F7439D0885
:1016E400439D10E59D30E4FB8D9B2243C604439D3E
:1016F40004439D10E59D30E4FB8D9C2243C60843C2
:101704009D08439D10E59D30E4FB8D9B22C3EB9423
:1017140080EC9400500A90013CE4F08F820215DFC3
:0B17240090013C7401F08F820215DF81
:10173000C0D075D00808B8000D09B900090ABA0070
:10174000050BBB00010CD0D032A2AFC2AFA808A9D4
:1017500009AA0AAB0BAC8A8588F092AF30F51274F7
:10176000012C600D08B8000909B900050ABA00018A
:101770000BC3EC9406FCE8FEE9FFC003C00275F061
:1017800077E8A4F8ADF075F077E9A42DF9E435F029
:10179000FD75F077EAA42DFAE435F0FD75F077EBEE
:1017A000A42DFBE435F0FDEE29F9EF3AFAD0E03B49
:1017B000FBD0E03DFD75F003ECA4FCE5F0C313FEA7
:1017C000EC13FC7F00EC28F8EE39F9EF3AFAEF3B26
:1017D000FBEF3DFDC3ED13FDEB13FBEA13F5F0E961
:1017E00013F583E813F582EB22A2AFC2AFA808A9D4
:1017F00009AA0AAB0BAC0C92AF75F030E8A4A8F0C4
:1018000075F030E9A428ADD0F582A8F075F030EA83
:10181000A48DD038ADD0F583A8F075F030EBA48D51
:10182000D038ADD0F9A8F075F030ECA48DD038895F
:10183000F02285822285832385F024F5251217491D
:1018400085822685832785F028F529E522452345CD
:10185000244525700122A822A923AA24AB25852688
:101860002A85272B85282C85292DE8494A4B60DBC2
:10187000C003C002C001C000121749AC82AD83AEE4
:10188000F0FFD000D001D002D003ECC3952AFCEDCC
:10189000952BFDEE952CFEEF952DFFC3EC94E8ED16
:1018A0009403EE9400EF940040A118B8FF0919B911
:1018B000FF051ABAFF011B882289238A248B25740D
:1018C000E8252AF52A7403352BF52BE4352CF52C65
:1018D000E4352DF52D852A26852B27852C28852D69
:0318E000298087D5
:1018E400AE82AF83C374019EE49F40022200BF0016
:1018F40005BE02022200C374039EFE74009FFFBE55
:101904000004BF0001220000000000000000000EDF
:10191400BE00F30FBF00F52275A15575A1AA74F896
:1019240055B94405F5B975A1009013881218E375EB
:101934009E5D759D0074F055894402F58953C9EF85
:10194400758C06C28DD2A9D28CD2AF2220F7113069
:10195400F6138883A88220F509F6A88375830022EC
:0819640080FEF280F5F0223252
:01196D003247
:10196F0022AF82BF0200503EEF75F002A424A8FD03
:10197F00740135F0FE900140E0FBA3E0FC8D828EF8
:10198F0083EBF0ECA3F0BF00028005BF0118800BC2
:10199F00900142E024FF9288D2A822900142E0FFFA
:1019AF0024FF928AD2AA22AF82BF02005028BF0022
:1019BF00028005BF01088004C2A88002C2AAEF7589
:1019CF00F002A424A8FE740135F0FF8E828F837479
:0719DF006FF07419A3F02260
:1019E70020F71430F6148883A88220F507E6A88329
:0C19F70075830022E280F7E49322E022D6
:101A03009001ACE0FF7E000FBF00010E7410C0E038
:101A1300E4C0E08F828E83121B23AE821581158171
:101A23009001ADE0FFEEB50701229001ACE0244345
:101A3300F582E43401F583E599F09001ACEEF022F0
:101A430030024A9001AEE0FF9001AFE0FEEFB50631
:101A530005A202C202229001AFE02453F582E434CE
:101A630001F583E0F5999001AFE0FF7E000FBF0021
:101A7300010E7410C0E0E4C0E08F828E83121B233A
:0E1A8300AE82AF83158115819001AFEEF02287
:101A91009001B0E0FF7E000FBF00010E7410C0E0A6
:101AA100E4C0E08F828E83121B23AE8215811581E3
:101AB1009001B1E0FFEEB50701229001B0E024638F
:101AC100F582E43401F583E5C1F09001B0EEF02236
:101AD10030034A9001B2E0FF9001B3E0FEEFB5069A
:101AE10005A203C203229001B3E02473F582E4341A
:101AF10001F583E0F5C19001B3E0FF7E000FBF0067
:101B0100010E7410C0E0E4C0E08F828E83121B23AB
:0E1B1100AE82AF83158115819001B3EEF022F4
:101B1F0075820022C017858117AE82E583FF33E4FB
:101B2F0033FD6009C3E49EFBE49FFC80048E038FAA
:101B3F0004E51724FCF808E630E70FE51724FCF856
:101B4F00C3E496FE08E496FF800AE51724FCF886A6
:101B5F0006088607C005C006C0078B828C83121B40
:101B6F0091AE82AF8315811581D005ED600DC3E471
:101B7F009EFCE49FFD8C828D8380048E828F83D0A8
:101B8F001722C017858117AE82AF837D007C00E5D9
:101B9F001724FCF808E6235401FB702FE51724FCEB
:101BAF00F8E626F608E633F6E51724FCF8C3EE96BA
:101BBF00EF08965011E51724FCF808E618C313C672
:101BCF0013C608F680050C8C0580C4E51724FCF8B5
:101BDF00C3EE96EF0896400DE51724FCF8EEC3967A
:101BEF00FEEF0896FFE51724FCF808E618C313C6A6
:101BFF0013C608F68D041DEC70D18E828F83D0171B
:011C0F0022B2
:101C10001201100100000008494287420100010240
:101C20000301090249000201008064090400000266
:101C300003010100092110010001227C0007058138
:101C40000309000A0705010309000A09040100024B
:101C5000030000000921100100012219000705827C
:101C6000032000080705020320000805010906A15A
:101C7000018501050719E029E7150025019508757B
:101C800001810295017508810395067508150026E6
:101C9000FF000507190029E781000508190129053A
:101CA00015002501950575019102950175039103B4
:101CB000C005010902A1010901A100850205091958
:101CC0000129031500250195037501810295017510
:101CD00005810305010930093109381581257F7512
:101CE0000895038106C0C00660FF0961A101096271
:101CF000150026FF0095207508810609639183C0B1
:101D0000040309041C034300480035003500780033
:101D1000200071006D006B0020006B006200640009
:101D20002603430048003500350078006400750044
:101D300069006E006F00200071006D006B002000D4
:101D40006B00620064000E034400650071006900CE
:041D50006E006700BA
:101D5400000000000000000000000000000000017E
:101D64000000000000000000000000000000030468
:101D74000000020000000000010101010101010155
:101D84000000020202020202020200000303030333
:101D94000303030300000404040404040404000013
:101DA40001020408102040800000010204081020F1
:101DB400408000000102040810204080000001025D
:101DC4000408102040800000FFFFFFFFFFFFFFFF1B
:101DD400FFFFFF00FFFF0102FFFFFFFFFFFFFFFF09
:101DE400FFFFFFFFFFFFFFFF03FFFFFFFFFFFFFFFB
:0B1DF4002D14000000000000000000A3
:0F1DFF00000000000000000000000000000000D5
:011E0E0000D3
:071E0F0000000000000000CC
:011E160000CB
:021E17000000C9
:041E19006F196F19B5
:041E1D0000000000C1
:041E210000000000BD
:00000001FF
