:0600000002006B021D4727
:03000B000221448B
:03001300021D9A31
:01001B0032B2
:03002300021CAF0D
:03002B0002266545
:01003300329A
:03003B00021DEDB6
:03004300021C702C
:01004B003282
:03005300021CFB91
:01005B003272
:030063000226630F
:03006600021E4136
:02006900E4733E
:0D006B0075812D1229E6E582600302006612
:100078007939E94400601B7A01902BEE78B075A0BD
:1000880001E493F2A308B8000205A0D9F4DAF275E6
:02009800A0FFC7
:06009A00E478FFF6D8FD3A
:1000A0007800E84400600A790A75A001E4F309D8F1
:1000B000FC78A6E84400600C790190010AE4F0A302
:0400C000D8FCD9FA95
:0A00C40090010BE4F0900127E4F036
:0E00CE007808E4F608F608F608F6780C7600D6
:0200DC00C2055B
:0200DE00C20658
:0300E000020066B5
:1000E400E58290010AF0E0F5821220687E008E839A
:1000F4002290010CE4F0758220121FA3E5826006B1
:1001040090010C7401F0758221121FA3E58260082E
:1001140090010CE043E002F090010DE4F090010B3B
:10012400E0FF700A90010CE0FEBE01028034BF01C2
:1001340003EF8001E4FE600A90010CE0FDBD0302C0
:100144008020E4BF030104FD600A90010CE0FCBCC4
:100154000202800EE4BF020104FC600E90010CE078
:10016400700890010D7401F08036EF700A90010C54
:10017400E0FFBF02028023EC600A90010CE0FFBFA5
:1001840003028016ED600A90010CE0FFBF010280BB
:1001940009EE600C90010CE0700690010D74FFF004
:1001A40090010CE090010BF090010DE0F582221219
:1001B40005BA7F017E00BE1800501B8E82C007C0A6
:1001C40006121C60AD82D006D007BDFF0280047FFA
:1001D4000080030E80E0EF700302028690010EE4BB
:1001E400F090010F7404F0900110E4F09001117488
:1001F40005F0900112E4F09001137406F0900114DC
:10020400E4F09001157407F0900116E4F0900117E2
:100214007408F0900118E4F09001197409F0900149
:100224001AE4F090011B740AF090011CE4F09001B0
:100234001D740BF090011EE4F090011F740CF090FB
:100244000120E4F0900121740DF0900122E4F0907B
:100254000123740EF0900124E4F0900125740FF052
:100264007F00BF1800501BEF240EF582E43401F523
:1002740083E090015BF08F82C007121C2AD0070F25
:1002840080E09001677402F0758211121EEC9001F7
:10029400677402F0758220121EEC9001677402F0FC
:1002A400758221121EEC12137D902580E4F5F00274
:1002B400236B1215911221FDAC82AD839001BBE03A
:1002C400F8A3E0F9A3E0A3E0ECC398FCED99FDC327
:1002D400EC9405ED648094805001221221FDAC82DF
:1002E400AD83AEF0FF9001BBECF0EDA3F0EEA3F014
:1002F400EFA3F0758211121FA3AF82900126EFB411
:100304000100E433F0900126E060249001B2E07033
:100314001E1221FDAC82AD83AEF0FF9001B4ECF06F
:10032400EDA3F0EEA3F0EFA3F09001B37401F0900D
:100334000126E060030203D09001B2E070030203DF
:10034400D09001B3E070030203D01221FDAC82AD62
:1003540083AEF0FF9001B4E0F8A3E0F9A3E0FAA3C0
:10036400E0FBECC398FCED99FDEE9AFEEF9BFFC316
:10037400EC94F4ED9401EE9400EF94005039900164
:10038400BFE0FF9001587401F0900159EFF0900123
:100394005A7401F075820012186D9001BFE0FF904D
:1003A40001587401F0900159EFF090015AE4F0758E
:1003B400820012186D80109001BFE0FFB40100921A
:1003C400009001BFE433F09001B3E4F0900126E023
:1003D4009001B2F01200F5E582FF700302047390FD
:1003E4000127E02401F0E0FEBE0400500302047380
:1003F400900127E4F0C364808FF063F08095F0509F
:10040400379001BFE0FF900158E4F0900159EFF0FC
:1004140090015A7401F075820012186D9001BFE0CA
:10042400FF900158E4F0900159EFF090015AE4F084
:1004340075820012186D80379001BFE0FF9001585B
:100444007402F0900159EFF090015A7401F0758232
:100454000012186D9001BFE0FF9001587402F090F3
:100464000159EFF090015AE4F075820012186D758D
:10047400820B1200E4AE82AF839001B8E0FDE0701D
:10048400308E038F04C374F59BE49C50249001B810
:100494007401F09001BFE0FC9001587402F09001E7
:1004A40059ECF090015A7401F075820112186D80B4
:1004B4002CED6029C3EE94E1EF940050209001B834
:1004C400E4F09001BFE0FF9001587402F0900159EC
:1004D400EFF090015AE4F075820112186D75820EE6
:1004E4001200E4AE82AF839001B9E0FDE0702F8E7C
:1004F400038F04C374F59BE49C50239001B97401E9
:10050400F09001BFE0FC900158E4F0900159ECF048
:1005140090015A7401F075820112186D802BED6000
:1005240028C3EE94E1EF9400501F9001B9E4F090D9
:1005340001BFE0FF900158E4F0900159EFF0900101
:100544005AE4F075820112186D75820F1200E4AE40
:1005540082AF839001BAE0FDE0702E8E038F04C356
:1005640074F59BE49C50229001BA7401F09001BF91
:10057400E0FC9001587401F0900159ECF090015A9C
:100584007401F075820102186DED6029C3EE94E1E7
:10059400EF940050209001BAE4F09001BFE0FF9086
:1005A40001587401F0900159EFF090015AE4F0758C
:0605B400820102186D2215
:1005BA00120E73120E9D120E8C75DD0075D3007526
:1005CA00D5002275D30074FC55D24402F5D29001AD
:1005DA00C1E4F02275D50074FC55D44402F5D490D8
:1005EA0001C2E4F02230DE1190000AE0FFBF0109E7
:1005FA0090000BE0FF9001C0F02230DE03021545A7
:10060A0022AF82900129E07003F582227D007E00EC
:10061A009001C1E060240DBD00010E900005C007E5
:10062A00C006C0051222F7D005D006D007C3ED9444
:10063A0050EE94C340DA75820022BF013A90004A14
:10064A007401F07E00BE080050278E047D007441BC
:10065A002CFCE43DFDEC240AFCED3400FDEE24C341
:10066A00F582E43401F583E0FB8C828D83F00E8001
:10067A00D475D309020704BF023990004A7402F004
:10068A007E00BE040050278E047D0074412CFCE4D9
:10069A003DFDEC240AFCED3400FDEE24CBF582E4AA
:1006AA003401F583E0FB8C828D83F00E80D475D300
:1006BA00058047BF031C90004A7403F09001CFE005
:1006CA0090004BF09001D0E0FE90004CF075D303FF
:1006DA008028BF041490004A7404F09001D1E0FE0F
:1006EA0090004BF075D3028011BF080B90004A743A
:1006FA0008F075D321800375D3009001C17401F00D
:10070A0053D2FC75820122900129E07003F58222FE
:10071A007E007F009001C2E060200EBE00010F90B3
:10072A000005C007C0061222F7D006D007C3EE9410
:10073A0050EF94C340DE7582002275D5209001C225
:10074A007401F053D4FC75820122AF829001C3E098
:10075A0042079001C3EFF075820112060B75820100
:10076A0022AF829001C3E0FEEFF452069001C3EE7D
:10077A00F075820112060B75820122AF829001C5C3
:10078A00E0FEB50702805C9001C6E0FEB507028074
:10079A00529001C7E0FEB5070280489001C8E0FE0A
:1007AA00B50702803E9001C9E0FEB5070280349089
:1007BA0001CAE0FEB50702802A7E027D02ED24C34B
:1007CA00FBE43401FC8B828C83E070088B828C837F
:1007DA00EFF080080D8D06BD080040E1BE080475E3
:1007EA0082002275820112060B75820122AF827E77
:1007FA0002EF6016EE24C3FCE43401FD8C828D8383
:10080A00E0B507068C828D83E4F00EBE080040E155
:10081A0075820112060B758201227F00BF08005003
:10082A000FEF24C3F582E43401F583E4F00F80EC82
:10083A0075820102060B9001C0E0F58222AF829018
:10084A0001CBE042079001CBEFF075820212060B52
:10085A0075820122AF829001CBE0FEEFF45206903E
:10086A0001CBEEF075820212060B75820122AF826D
:10087A00C0071208479027101222F7D0078F82125A
:10088A00085E75820122AF829001CCEFF0900128B8
:10089A00E09001CDF075820212060B75820122AF3B
:1008AA00829001CEEFF075820212060B7582012248
:1008BA00AE82AF838E059001CFEDF08F069001D006
:1008CA00EEF075820312060B758201229001CFE4C5
:1008DA00F09001D0F075820312060B75820122E5B1
:1008EA008214F5F005F07401800225E0D5F0FB9042
:1008FA0001D1F075820412060B758201229001D192
:0C090A00E4F075820412060B75820122D5
:10091600AFDBBF08028003020CFD900007E0FE7FFC
:1009260000900006E0FD7C004FF510EC4EF5117FBF
:1009360000900001E0F5129001D2E4F0900000E092
:10094600FE54606027900000E0FE5306607D00BE06
:100956002005BD0002800BBE400DBD000A7FFF02D0
:100966000CFF7FFF020CFF7FFF020CFFE51224F451
:100976005003020CF9E512240B83F582E5122410CC
:1009860083F583E473DB09F9C9F9D3A3F9E0FDFF25
:10099600FF0C0B0C0B0C0A090C0A0A0C0C9000033A
:1009A600E0FEBE01028012BE02028018BE03028073
:1009B6001EBE2202806F020A637513EA7514297F30
:1009C60012020A657513FC7514297F49020A6585AA
:1009D6001082851183120F65900002E0700875136E
:1009E6001075142B8034900002E0FEBE01087513CA
:1009F6003E75142B8024900002E0FEBE020875139B
:100A06002675142B8014900002E0FEBE03087513B1
:100A16001475142B80047FFF80458513828514830B
:100A2600E493FF803A900002E0702E900004E0709C
:100A36000E75134575142A902A15E493FF802090AD
:100A46000004E0FEBE010E7513F775142A902A35D0
:100A5600E493FF800A7FFF80067FFF80027FFFBF4F
:100A6600FF03020CFF8F057E00C3ED9510EE951176
:100A760050048D108E11AD10AE11C3ED9408EE9496
:100A860000920140067B087C008004AB10AC118B01
:100A9600077C00C3EC9F50198C027B00EC2513F5F4
:100AA60082E43514F583E493F98A828B83F00C8013
:100AB600E28F037C00EDC39BFDEE9CFE8D108E1134
:100AC600EF2513F513E43514F514020CFF9000021C
:100AD600E0FE8E10751100020CFF900129E09000D7
:100AE60000F0AD10AE11C3ED9401EE940050030278
:100AF6000CFF7F01020CFF900002E0FE900129F03E
:100B0600020CFF900000E0541F702F900003E0FDE0
:100B16007E00900002E0FC7B004206EB4205BE012F
:100B260014BD0011902A03E493FE30E503020CFF86
:100B36007FFF020CFF7FFF020CFF900000E0FE53D8
:100B4600061F7D00BE0277BD0074900004E0FEBE65
:100B56000102805FBE02028049BE03028033BE04EA
:100B660002801DBE81028040BE8202802ABE8302B0
:100B76008014BE844474BC55DE4402F5DE020CFFCC
:100B860053DE73020CFF74BC55D64402F5D6020C34
:100B9600FF53D673020CFF74BC55D44402F5D4023D
:100BA6000CFF53D473020CFF74BC55D24402F5D229
:100BB600020CFF53D273020CFF7FFF020CFF7FFF74
:100BC600020CFF900000E0541F702F900003E0FD20
:100BD6007E00900002E0FC7B004206EB4205BE016F
:100BE60014BD0011902A03E493FE30E503020CFFC6
:100BF6007FFF020CFF7FFF020CFF900000E0FE5318
:100C0600061F7D00BE0205BD00028003020CD790C0
:100C16000003E0FD7E00900002E0FC7B004206EB54
:100C26004205EE4D6003020CD3900005E0FD7E0008
:100C3600900004E0FC7B004206EB4205BE0106BDC7
:100C46000003020CC7BE0205BD00028060BE03059C
:100C5600BD00028044BE0405BD00028028BE810599
:100C6600BD00028052BE8205BD00028036BE8305ED
:100C7600BD0002801ABE8451BD004E74BF55DE44CD
:100C860003F5DE8074747F55DE440CF5DE806A74ED
:100C9600BF55D64403F5D68060747F55D6440CF50F
:100CA600D6805674BF55D44403F5D4804C747F5512
:100CB600D4440CF5D4804274BF55D24403F5D28097
:100CC60038747F55D2440CF5D27FFF802C7FFF808D
:100CD600287FFF8024900000E4F0900001F0AD1022
:100CE600AE11C3ED9402EE940040047F02800AAF79
:100CF6001080067FFF80027FFFBFFF077512FF751A
:100D0600DCCF22EF24F740068FDD75DCC02275DDCF
:100D16000075DCC0227405B51202805D7406B5123A
:100D260066AE10AF11C3EE9408EF9400920240062F
:100D36007C087D008004AC10AD117D00C3ED9C5095
:100D4600198D027B00ED2513F582E43514F583E455
:100D560093F98A828B83F00D80E28C037D00EEC3CB
:100D66009BFEEF9DFF8E108F11EC2513F513E435D6
:100D760014F5148CDD63DC4022E5E35480FFE510B6
:100D86004FF5E375DC022275DD0075DC022275DDA8
:100D96000043DC022220D903020E4CE5D9540FFF92
:100DA600ADD95305307E00BD0005BE0002801CBDD6
:100DB6001005BE0002803CBD2005BE00028049BD74
:100DC6003006BE0003020E32020E4AEF24FB500329
:100DD600020E4AEF2F900DDF738008800C800F8083
:100DE600638061120D94020E4A1205EF80561206B8
:100DF600048051EF24FB404CEF2F900E0473804487
:100E060080428040803E803CEF24FB4037EF2F90AD
:100E16000E19738008800B800E80298027120D1B07
:100E260080221205CD801D1205DE8018EF24FB40BE
:100E360013EF2F900E3D7380088009800780058090
:100E460003120916C2D930D81775DC0275D212758D
:100E5600D41275E300C2DAC2D9C2D8900129E4F0EF
:100E660010DA0122E5DA20E20375D8FF2275E200E6
:100E760053E27F43E22975E30053E2BF53D1FB758A
:100E8600D18043D1012243E10443E10243E101431E
:100E9600D81FD2EAD2AF227E007F008EEC8FED7E85
:100EA6000A7F008EEE8FEF7E8A7F008EE48FE575D7
:0F0EB600D21275D41275EAC075EB0C75DC0222EE
:100EC6009001D3E0FFBF03005001229001D6E0FF5E
:100ED600BF020040119001D5E0FEBE010040079020
:100EE60001D97402F0229001D3E0FEB50707900104
:100EF600D97401F022BE05209001D7E0FCA3E0FDE5
:100F0600BCFF15BD0012BF010F9001D4E0FDBD026C
:100F1600079001D97403F022BE0412EF700F9001FE
:100F2600D4E0FEBE02079001D97404F022EF7017D8
:100F36009001D4E0FEBE030F9001D5E0FEBE01078E
:100F46009001D97401F022BF010040129001D4E053
:100F5600700C9001D5E070069001D97401F022AEB4
:100F660082AF839001D3E0FD0D9001D3EDF09001A7
:100F7600D7EEF0EFA3F0BE0210BF000D9001D4E053
:100F8600FD0D9001D4EDF08024BE0410BF000D903D
:100F960001D5E0FD0D9001D5EDF08011BEFF0EBF2D
:100FA600000B9001D6E0FF0F9001D6EFF0020EC6BF
:100FB6009001D9E0F58222900164E4F09001657415
:0E0FC60007F0E4A3F09001D375F000021EC402
:100FD4007E2A7F017D007C004305098E828F838DEC
:100FE400F0EC0226F1E582900142F0900137E0FF37
:100FF4007043900139E0FCA3E0FDA3E0FE900138CA
:10100400E0FB8C828D838EF012251C90013CE0FC69
:10101400A3E0FDA3E0FE8C828D838EF0EB12251CF1
:1010240090013FE0FCA3E0FDA3E0FE8C828D838E63
:10103400F0EB02251C900142E0FEFC7D00C007C0DD
:1010440006742BC0E0E4C0E08C828D83122924ACAA
:101054008215811581D006D0078C05ED75F02BA47F
:10106400FDEEC39D75F006A4F5178F18751900746D
:10107400FFC39518F515E49519F516900138E0F8B5
:10108400F97A00C007C004C002C001C000C015C086
:101094001689828A83122537AE8315811581D00083
:1010A400D001D002D004D0078FF0E517A4E5F0FFFB
:1010B4003395E0FD74FFC39FFFE49DFDC006C004AB
:1010C400C002C001C000C007C00589828A831225FE
:1010D40037AF8315811581D000D001D002D004D060
:1010E40006AB177D0074FFC39BFBE49DFDC007C0E6
:1010F40006C004C002C001C000C003C00585188238
:10110400851983122537AD8315811581D000D0014F
:10111400D002EDFB3395E0FD74FFC39BFBE49DFD22
:10112400C000C003C00589828A83122537AD8315A8
:10113400811581D000D004D006D007ECFB24FB50ED
:1011440003021299EB2B2B90114F7302115E0211C3
:101154009D0211DC02121B02125A900139E0FAA31B
:10116400E0FBA3E0FC8A828B838CF0E812251C90C0
:10117400013CE0FAA3E0FBA3E0FC8A828B838CF0C1
:10118400ED12251C90013FE0FAA3E0FBA3E0FC8AEA
:10119400828B838CF0EE02251C900139E0FAA3E0E7
:1011A400FBA3E0FC8A828B838CF0EF12251C900158
:1011B4003CE0FAA3E0FBA3E0FC8A828B838CF0E89A
:1011C40012251C90013FE0FAA3E0FBA3E0FC8A8215
:1011D4008B838CF0EE02251C900139E0FAA3E0FB2E
:1011E400A3E0FC8A828B838CF0EE12251C90013CD8
:1011F400E0FAA3E0FBA3E0FC8A828B838CF0E81284
:10120400251C90013FE0FAA3E0FBA3E0FC8A828B5B
:10121400838CF0ED02251C900139E0FAA3E0FBA3D6
:10122400E0FC8A828B838CF0EE12251C90013CE05A
:10123400FAA3E0FBA3E0FC8A828B838CF0EF1225F7
:101244001C90013FE0FAA3E0FBA3E0FC8A828B83BD
:101254008CF0E802251C900139E0FAA3E0FBA3E03E
:10126400FC8A828B838CF0ED12251C90013CE0FB00
:10127400A3E0FCA3E0FD8B828C838DF0EE12251C91
:1012840090013FE0FBA3E0FCA3E0FD8B828C838D07
:10129400F0E802251C900139E0FBA3E0FCA3E0FD8B
:1012A4008B828C838DF0E812251C90013CE0FBA31B
:1012B400E0FCA3E0FD8B828C838DF0EE12251C9064
:1012C400013FE0FCA3E0FDA3E0FE8C828D838EF061
:1012D400EF02251C900143E0FF900144E0FE9001E1
:1012E40045E0FD900137EEF0900138EDF0900139C2
:1012F4007446F07401A3F0E4A3F090013C7447F049
:101304007401A3F0E4A3F090013F7448F07401A3C6
:10131400F0E4A3F08F82120FE9900146E0C082C08E
:1013240083C0E0E58124F9F886820886830886F084
:10133400D0E012251CD083D082A3E0C082C083C039
:10134400E0E58124F9F886820886830886F0A3D034
:10135400E012251CD083D082A3E0C082C083C0E009
:10136400E58124F9F886820886830886F0A3A3D051
:10137400E012251CD083D08222900133E4F0900146
:101384003414F0900135F09001367401F075823216
:10139400121C60AF82900133EFF0758233121C602F
:1013A400AF82900134EFF0758234121C60AF8290EA
:1013B4000135EFF0758235121C60AF82900136EF73
:1013C400F07F00EF242AF582E43401F583E4F00F82
:1013D400BF090040EE1214C40214C4E58290014C0B
:1013E400F0E0FFBF03004001227E00C007C006906A
:1013F4000003122537AE82AF8315811581EE242AAE
:10140400FEEF3401FF90014AE08E828F83F0740175
:101414002EFCE43FFD900149E08C828D83F0740240
:101424002EFEE43FFF90014BE08E828F83F022E595
:101434008290014FF090014DE0FF90014FE0FE904B
:10144400014EE0FD7C008C027B00C007C006C00595
:10145400C004C002C003900003122537AA82AB83E4
:1014640015811581D004D005D006D007EA242AFAC4
:10147400EB3401FB8A828B83EFF08A828B83A3EEA9
:10148400F08A828B83A3A3EDF00CBC030040B72247
:10149400E582900152F0E0900133F0900150E09029
:1014A4000134F0900151E0900135F00214C4900130
:1014B40036E0B401009203E433900136F00214C420
:1014C400900136E0701190014DE4F090014EF075FA
:1014D40082001214338063900133E0FF900134E002
:1014E400FE900135E0FD900137EEF0900138EDF00B
:1014F4009001397453F07401A3F0E4A3F090013C1B
:101504007454F07401A3F0E4A3F090013F7455F017
:101514007401A3F0E4A3F08F82120FE9900153E069
:10152400FF900154E0FE900155E0FD90014DEEF076
:0D15340090014EEDF08F82121433020FD49F
:101542000207119001DA7401F022E58275F006A417
:10155200FF900156E075F003A42FFE900157E02E94
:1015620025E0FEF582C006121C60AF82D0068F0510
:101572007F000E8E82C007C005121C60AE82D005AD
:10158200D0077C00EE4207EC42058F828D832290C9
:1015920001DAE07001229001DAE4F090015C748AD1
:1015A200F07400A3F0E4A3F090015F7420F0E4A3D0
:1015B200F09000CA75F000121E5090008AE0FF24DD
:1015C200EC5003021864EF240A83F582EF24188397
:1015D200F583E47364FE0B6A2F606AA1066F6A6A80
:1015E200AAB26A6A6ABEC71B18151618161618160A
:1015F2001717181817171818181717189000CB7400
:1016020001F09000CCF002186A7F02BF2000400374
:1016120002186A8F057E0074402DFDE43EFEED2423
:101622008AF582EE3400F583E4F00F80DE90008BC1
:10163200E0FF90008CE0FE90008DE0FD900156EE00
:10164200F0900157EDF08F8212154CAE82AF838F6E
:10165200059000CEEDF09000CFEEF002186A9000F7
:101662008BE0FF90008CE0FE90008DE0FDEF75F0C6
:1016720006A4FFEE75F003A42F2D25E0FE90008E48
:10168200E090015BF08E82C006121C2AD0060E90FA
:10169200008FE090015BF08E82121C2A02186A9081
:1016A200008BE0FF90008CE0FE90008DE0FD90004A
:1016B2008EE0FCBF0202800302186ABE01028013A0
:1016C200BE02028019BE030302186ABE040280240D
:1016D20002186A900135EDF01214C402186AED7016
:1016E20007900136E4F080069001367401F012147E
:1016F200C402186A900133EDF0900134ECF0121438
:10170200C402186A90008BE0FF90008CE0FEBF02DA
:1017120002800302186ABE01028012BE0202801910
:10172200BE0302802CBE0402802F02186A9001358B
:10173200E0FF9000CDF002186A900136E060067E6C
:10174200017F0080047E007F009000CDEEF0021841
:101752006A9000CDE4F002186A900133E09000CD67
:10176200F0900134E0FF9000CEF002186A9001334D
:10177200E090015BF0758232121C2A900134E090F5
:10178200015BF0758233121C2A900135E090015BF7
:10179200F0758234121C2A900136E090015BF075DC
:1017A2008235121C2A02186A9000CBE4F002186AF1
:1017B2009000CCE4F09000CDF002186A9000CB7457
:1017C20002F002186A90008BE07F0090008CE042E9
:1017D2000790008DE0FE7D00C3ED9E400302186A73
:1017E2008D037C0074442BFBE43CFCEB248AFBEC71
:1017F2003400FCED2FF582C007C006C005C004C04E
:1018020003121C60AA82D003D004D005D006D007F0
:101812008B828C83EAF00D80BF90008BE07F00907A
:10182200008CE0420790008DE0FE7D00C3ED9E50EB
:1018320037ED2FFC8D027B0074042AFAE43BFBEAAD
:10184200248AF582EB3400F583E090015BF08C8210
:10185200C007C006C005121C2AD005D006D0070D4D
:1018620080CA9000CA74FFF0021542AF82900159FB
:10187200E0FE900158E0FD900156EFF0900157ED27
:10188200F08E8212154CAE82AF838F058D048E03CB
:10189200EC60030219B9BBCD0050030219B9EB2465
:1018A2002350030219B9BBCD0050030219B8EB242F
:1018B2002550030219B8EB2433FA240A83F582EA8D
:1018C200241283F583E473E5FD152C43586A7C8E5C
:1018D200B8B8B8A0AC181819191919191919191981
:1018E20019191990015AE070030219B8900128746D
:1018F200F8F07582001208900219B890015AE0704F
:10190200030219B89001287408F075820012089039
:101912000219B890015AE070030219B8900128E444
:10192200F07582F81208900219B890015AE070031B
:101932000219B8900128E4F0758208120890021981
:10194200B890015AE060097582011208470219B87D
:1019520075820102085E90015AE0600675820202F9
:10196200084775820202085E90015AE0600675829D
:101972000402084775820402085E90015AE060067C
:1019820075820802084775820802085E90015AE0D3
:10199200600675821002084775821002085E900187
:1019A2005AE060127582010208A990015AE06006AD
:1019B2007582FF0208A9228E018F0274FF2A40035A
:1019C200021A83C374FF99741F9A5003021A835335
:1019D200051F8E0090015AE0605BED30E00E7582CB
:1019E20001C005C000120754D000D005ED30E10E51
:1019F200758202C005C000120754D000D005ED3038
:101A0200E20E758204C005C000120754D000D00552
:101A1200ED30E30E758208C005C000120754D000F5
:101A2200D005ED30E40A758210C000120754D000D0
:101A320088820207858882C0051207F7D005ED303B
:101A4200E00A758201C00512076BD005ED30E10A8C
:101A5200758202C00512076BD005ED30E20A75826D
:101A620004C00512076BD005ED30E30A758208C089
:101A72000512076BD005ED30E40675821002076B84
:101A820022EC701EBBA5004019EB245840148B05B4
:101A9200ED245CFD90015AE060058D820208E902A6
:101AA2000907EC6003021BD3BBA8005003021BD33F
:101AB200EB243D5003021BD390015AE07003021B3A
:101AC200CFBBA8005003021BC5EB243D5003021BF1
:101AD200C5EB2458FD240A83F582ED241F83F58388
:101AE200E4731A21282F363D444B52595F656B71BE
:101AF200777D83898F959BA1A7ADB3B9BF1B1B1BB4
:101B02001B1B1B1B1B1B1B1B1B1B1B1B1B1B1B1B23
:101B12001B1B1B1B1B1B1B1B78E27D00021BC678B9
:101B2200E97D00021BC678EA7D00021BC678B57DFE
:101B320000021BC678B67D00021BC678B77D000284
:101B42001BC678CD7D00021BC678837D01021BC6B1
:101B520078B87D00021BC6788A7D01806778927D05
:101B620001806178947D01805B78217D02805578C7
:101B7200237D02804F78247D02804978257D028072
:101B82004378267D02803D78277D028037782A7D42
:101B920002803178B37D00802B78B47D0080257877
:101BA2006F7D00801F78707D008019789F7D018095
:101BB2001378CB7D01800D789F7D02800778A07D10
:101BC2000280012288828D831208BA80030208D61D
:101BD20022EC7048EB241892044041BBE0004029FB
:101BE2002004268B05ED2420F5F005F07401800217
:101BF20025E0D5F0FBFD90015AE060078D821207C7
:101C02005480058D8202076B2290015AE060078B97
:101C12008212078580058B820207F722B90104BA76
:081C2200000122EE4F700022C8
:101C2A00AF82BF800040012275A15575A1AA43B1B8
:101C3A000475A1007585C0EF2FF58490015BE0F56E
:101C4A008EE58630E60375869A75A15575A1AA5365
:101C5A00B1FB75A10022AF827585C0EF2FF584759F
:061C6A00868E858E8222A9
:101C7000C021C0E0C0F0C082C083C007C006C0055C
:101C8000C004C003C002C001C000C0D075D00012A3
:101C90000D9BD0D0D000D001D002D003D004D0050D
:101CA000D006D007D083D082D0F0D0E0D02132C08F
:101CB00021C0E0C0F0C082C083C007C006C005C01C
:101CC00004C003C002C001C000C0D075D00030986D
:101CD000051225D5C298309905122615C299D0D083
:101CE000D000D001D002D003D004D005D006D00758
:101CF000D083D082D0F0D0E0D02132C021C0E0C06B
:101D0000F0C082C083C007C006C005C004C003C0C5
:101D100002C001C000C0D075D00030C005122896A6
:101D2000C2C030C1051228D6C2C1D0D0D000D00167
:101D3000D002D003D004D005D006D007D083D08203
:101D4000D0F0D0E0D02132C021C0E0C0F0C082C0CD
:101D500083C007C006C005C004C003C002C001C0E4
:101D600000C0D075D0009001E1E0FEA3E0FFC00705
:101D7000C0068E828F83120069D006D007D0D0D0E3
:101D800000D001D002D003D004D005D006D007D0B7
:101D900083D082D0F0D0E0D02132C021C0E0C0F0AA
:101DA000C082C083C007C006C005C004C003C00213
:101DB000C001C000C0D075D0009001E3E0FEA3E0F8
:101DC000FFC007C0068E828F83120069D006D0073D
:101DD000D0D0D000D001D002D003D004D005D0069E
:101DE000D007D083D082D0F0D0E0D02132C021C043
:101DF000E0C0F0C082C083C007C006C005C004C0F8
:101E000003C002C001C000C0D075D0009001DBE06B
:101E1000FEA3E04E600E9001DBE0F8A3E0F58388BE
:101E200082120069D0D0D000D001D002D003D004FB
:101E3000D005D006D007D083D082D0F0D0E0D0211A
:101E4000321223301201B31202B680FB75820022D7
:101E5000AFF0AE83E582900161F0EEA3F0EFA3F066
:101E6000900161E0F51BA3E0F51CA3E0F51DAA1BA2
:101E7000AB1CAC1D90015CE0F8A3E0F9A3E0FF907F
:101E8000015FE0F51EA3E0F51FAD1EAE1F151E7429
:101E9000FFB51E02151FED4E6020888289838FF0EA
:101EA00012278DFEA3A882A9838A828B838CF0EEF1
:101EB00012251CA3AA82AB8380CF851B82851C833D
:101EC000851DF022AC82AD83900165E0FEA3E0FFAA
:101ED000BE000360121F0F900164E08C828D83129C
:101EE000251CA3DEFADFF88C828D8322E582FF9029
:101EF0002B9E93FEEF902B7693FF7001229001674B
:101F0000E0FD701BBF0209EEF4FC5292EC529322EA
:101F1000BF0402800122EEF4FC5296EC529722BDDF
:101F20000214BF0207EE4292EE429322BF0439EE42
:101F30004296EE429722BD0116BF0208EEF452927D
:101F4000EE429322BF0421EEF45296EE429722BD58
:101F50000316BF0208EE4292EEF4529322BF040829
:101F6000EE4296EEF4FE529722AF82BF0102800F3E
:101F7000BF02028013BF03028017BF0425801BE548
:101F8000C620E21E539DFB22E5C620E315539DF7B4
:101F900022E5C630E20C539DFB22E5C630E3035335
:101FA0009DF722E582FF902B4E93FEEF902B9E93A0
:101FB000FDEF902B7693FF7003F58222EE600D8E7D
:101FC00082C007C005121F69D005D0077E00BF027E
:101FD00002800ABF03028009BF040C8008AE908013
:101FE00006AEA08002AEB0ED5E600475820122757F
:101FF000820022E582FF902B4E93FEEF902B9E9362
:10200000FDEF902B7693FFEE600D8E82C007C0052A
:10201000121F69D005D007A2AFE433FEC2AFBF02E2
:1020200002800ABF03028017BF0436802490016833
:10203000E07007EDF4FF52908027ED4290802290EF
:102040000168E07007EDF4FF52A08015ED42A0801A
:1020500010900168E07007EDF4FF52B08003ED428C
:07206000B0EE6002D2AF22D6
:10206800E582902BC693FFBFFF0475820022759A04
:102078000974FC5580FE74035F4EF580D284208479
:10208800FD859F8222AF829001677401F08F82C024
:1020980007121EECD007900169E0FDA3E0FE4D7029
:1020A8000A900168E4F08F82021FF38D038E047496
:1020B800FF2C500B9001687401F08F82021FF3EF20
:1020C800902B4E93FA24FB4054EA2A9020D7738031
:1020D8004C800680158024803353C6FB439D0443FF
:1020E8009D10E59D30E4FB8D9C2253C6F7439D0867
:1020F800439D10E59D30E4FB8D9B2243C604439D20
:1021080004439D10E59D30E4FB8D9C2243C60843A3
:102118009D08439D10E59D30E4FB8D9B22C3EB9405
:1021280080EC9400500A900168E4F08F82021FF35B
:0B2138009001687401F08F82021FF319
:10214400C0D075D00808B8000D09B900090ABA0052
:10215400050BBB00010CD0D032A2AFC2AFA808A9B6
:1021640009AA0AAB0BAC8A8588F092AF30F51274D9
:10217400012C600D08B8000909B900050ABA00016C
:102184000BC3EC9406FCE8FEE9FFC003C00275F043
:1021940077E8A4F8ADF075F077E9A42DF9E435F00B
:1021A400FD75F077EAA42DFAE435F0FD75F077EBD0
:1021B400A42DFBE435F0FDEE29F9EF3AFAD0E03B2B
:1021C400FBD0E03DFD75F003ECA4FCE5F0C313FE89
:1021D400EC13FC7F00EC28F8EE39F9EF3AFAEF3B08
:1021E400FBEF3DFDC3ED13FDEB13FBEA13F5F0E943
:1021F40013F583E813F582EB22A2AFC2AFA808A9B6
:1022040009AA0AAB0BAC0C92AF75F030E8A4A8F0A5
:1022140075F030E9A428ADD0F582A8F075F030EA65
:10222400A48DD038ADD0F583A8F075F030EBA48D33
:10223400D038ADD0F9A8F075F030ECA48DD0388941
:10224400F02285822285832385F024F52512215DE1
:1022540085822685832785F028F529E522452345AF
:10226400244525700122A822A923AA24AB2585266A
:102274002A85272B85282C85292DE8494A4B60DBA4
:10228400C003C002C001C00012215DAC82AD83AEA8
:10229400F0FFD000D001D002D003ECC3952AFCEDAE
:1022A400952BFDEE952CFEEF952DFFC3EC94E8EDF8
:1022B4009403EE9400EF940040A118B8FF0919B9F3
:1022C400FF051ABAFF011B882289238A248B2574EF
:1022D400E8252AF52A7403352BF52BE4352CF52C47
:1022E400E4352DF52D852A26852B27852C28852D4B
:0322F400298087B7
:1022F800AE82AF83C374019EE49F40022200BF00F8
:1023080005BE02022200C374039EFE74009FFFBE36
:102318000004BF0001220000000000000000000EC1
:10232800BE00F30FBF00F52275A15575A1AA74F878
:1023380055B94405F5B975A1009013881222F775AF
:102348009E5D759D0074F055894402F58953C9EF67
:10235800758C06C28DD2A9D28CD2AF2290016BE0C7
:10236800F58222AC82AD83AEF0FFC004C005C00682
:10237800C00790680075F0897409122667AC82ADB1
:1023880083AEF0FFE58124FCF581EDC4CCC4540F85
:102398006CCC540FCC6CCCFDEEC454F04DFDEFC4A6
:1023A800CEC4540F6ECE540FCE6ECEFF8C028D036A
:1023B800C007C006C005C004740AC0E0E4C0E08AD3
:1023C800828B83122817AA8215811581D004D00523
:1023D800D006D007C002740AC0E0E4C0E0C0E0C084
:1023E800E08C828D838EF0EF122667AC82AD83AECF
:1023F800F0FFE58124FCF581D002BA0500400D0C00
:10240800BC00090DBD00050EBE00010FC29FD29E83
:10241800C29DC2CDC2CC438780740F55894420F534
:102428008943C9A0C3E49CF58DD28EC299D29CD2AF
:10243800AC90016B7401F022AF82A2AFE433FEC20C
:10244800AF9001DFE0FD9001E0E0FCEDB504102065
:10245800050DD2058F99EE6002D2AF7582012290E8
:1024680001DFE0FD0D53050F7B007C009001E0E0EB
:10247800FAEDB50235EE6002D2AF0BBB00010C904D
:102488000005C007C006C005C004C0031222F7D06B
:1024980003D004D005D006D0078B018C02C3E99481
:1024A80020EA944E40C6758200229001DFE0247D28
:1024B800F582E43401F583EFF09001DFEDF0EE6092
:1024C80002D2AF758201222005FD229001DDE024B1
:1024D80010FF9001DEE0FEEFC39EFF53070F8F82CF
:1024E800229001DDE02410FF9001DEE0FEEFC39EA4
:1024F800540F601C9001DEE0246DF582E43401F590
:1025080083E0FF9001DEE0FE0E740F5EF08F822202
:102518007582002220F71130F6138883A88220F5EF
:1025280009F6A8837583002280FEF280F5F022C0A8
:102538001A85811AC082C083E5812405F581AF1A06
:102548000FE51A2403F8A607087600087640E51A6E
:1025580024FCFD7E007F40E51A2406F9A81A0886A7
:1025680004E51A24FCF886038CF0EBA4F709A7F01D
:10257800E51A240604F98704A81A08860374012DAD
:10258800FAE43EFE8A828E838FF012278D8BF0A4A8
:10259800FBE51A2403F8740126FDE40836FE0886D4
:1025A800078D828E838FF012278DFDE51A24FCF8A3
:1025B80086078DF0EFA42B2CF7E51A2406F9870679
:0D25C8000987078E828F83851A81D01A2221
:1025D5009001DDE0FF7E000FBF00010E7410C0E02A
:1025E500E4C0E08F828E831227A9AE821581158102
:1025F5009001DEE0FFEEB50701229001DDE0246DDC
:10260500F582E43401F583E599F09001DDEEF022E1
:1026150030054A9001DFE0FF9001E0E0FEEFB506EE
:1026250005A205C205229001E0E0247DF582E4348F
:1026350001F583E0F5999001E0E0FF7E000FBF0012
:10264500010E7410C0E0E4C0E08F828E831227A9CA
:0E265500AE82AF83158115819001E0EEF02278
:012663003244
:012665003242
:10266700C01A85811AC082C083C0F0C0E07A007B9F
:10267700007E007F007D20A81A08080808E623547A
:1026870001FCA81A08E626F608E633F608E633F64C
:1026970008E633F6EA2AFAEB33FBEE33FEEF33FFB5
:1026A700EC6003430201E51A24FAF8C3EA96EB0843
:1026B70096EE0896EF0896401CE51A24FAF8EAC346
:1026C70096FAEB0896FBEE0896FEEF0896FFA81A17
:1026D70008E64401F6DDA0A81A0886820886830862
:1026E70086F008E6851A81D01A22ABF0A2AFE43350
:1026F700FEC2AFE0A37A0833D2B44002C2B4790273
:0E270700D9FEC2B4DAF1DBEBEE6002D2AF22F3
:1027150022AF82BF0200503EEF75F002A424E1FD16
:10272500740135F0FE90018DE0FBA3E0FC8D828EF7
:1027350083EBF0ECA3F0BF00028005BF0118800B0E
:1027450090018FE024FF9288D2A82290018FE0FFAC
:1027550024FF928AD2AA22AF82BF02005028BF006E
:10276500028005BF01088004C2A88002C2AAEF75D5
:10277500F002A424E1FE740135F0FF8E828F83748C
:0727850015F07427A3F022F8
:10278D0020F71430F6148883A88220F507E6A88375
:10279D0075830022E280F7E49322E022C01A85813E
:1027AD001AAE82E583FF33E433FD6009C3E49EFB7B
:1027BD00E49FFC80048E038F04E51A24FCF808E6E0
:1027CD0030E70FE51A24FCF8C3E496FE08E496FF03
:1027DD00800AE51A24FCF88606088607C005C0069F
:1027ED00C0078B828C83122817AE82AF831581159B
:1027FD0081D005ED600DC3E49EFCE49FFD8C828DC0
:10280D008380048E828F83D01A22C01A85811AAEDE
:10281D0082AF837D007C00E51A24FCF808E6235482
:10282D0001FB702FE51A24FCF8E626F608E633F6D0
:10283D00E51A24FCF8C3EE96EF08965011E51A241C
:10284D00FCF808E618C313C613C608F680050C8CF1
:10285D000580C4E51A24FCF8C3EE96EF0896400DEA
:10286D00E51A24FCF8EEC396FEEF0896FFE51A2450
:10287D00FCF808E618C313C613C608F68D041DEC44
:09288D0070D18E828F83D01A22D3
:102896009001E5E0FF7E000FBF00010E7410C0E05E
:1028A600E4C0E08F828E831227A9AE82158115813E
:1028B6009001E6E0FFEEB50701229001E5E02490E5
:1028C600F582E43401F583E5C1F09001E5EEF022EE
:1028D60030064A9001E7E0FF9001E8E0FEEFB5061A
:1028E60005A206C206229001E8E024A0F582E4349F
:1028F60001F583E0F5C19001E8E0FF7E000FBF001F
:10290600010E7410C0E0E4C0E08F828E831227A906
:0E291600AE82AF83158115819001E8EEF022AC
:10292400C01A85811AAE82E583FF33E433FD600962
:10293400C3E49EFBE49FFC80048E038F04E51A2409
:10294400FCF808E633E433FF600FE51A24FCF8C30F
:10295400E496FA08E496FE800AE51A24FCF8860256
:10296400088606C007C005C002C0068B828C83128D
:10297400299AAC82AE8315811581D005D007EF6DFD
:10298400600DC3E49CFDE49EFF8D828F8380048CE4
:10299400828E83D01A22C01A85811AAE82AF837CBC
:1029A400007D007B10EF235401FAEE2EFEEF33FF7F
:1029B400EC2CFCED33FDEA6003430401E51A24FC2E
:1029C400F8C3EC96ED08964010E51A24FCF8ECC325
:1029D40096FCED0896FD430601DBCA8E828F83D0F8
:0629E4001A227582002298
:1029EA001201100100000008494287420100010259
:1029FA00030109024900020100806409040000027F
:102A0A000301010009211001000122B2000705811A
:102A1A000309000A0705010309000A090401000263
:102A2A000300000009211001000122190007058294
:102A3A00032000080705020320000805010906A172
:102A4A00018501050719E029E71500250195087593
:102A5A0001810295017508810395067508150026FE
:102A6A00FF000507190029E7810005081901290552
:102A7A0015002501950575019102950175039103CC
:102A8A00C005010902A1010901A100850205091970
:102A9A000129031500250195037501810295017528
:102AAA0005810305010930093109381581257F752A
:102ABA000895038106C0C0050C0901A10185031907
:102ACA00002A3C021500263C02950175108100C0BF
:102ADA0005010980A10185041981298315002501B1
:102AEA00950375018102950175058101C00660FF94
:102AFA000961A1010962150026FF00952075088168
:102B0A000609639183C004030904120343004800C1
:102B1A0035003500320051004D004B0018035100BA
:102B2A006D006B004B006500790062006F00610068
:102B3A0072006400100335004200720065006500EF
:042B4A007A006500A8
:102B4E000000000000000000000000000000000176
:102B5E000000000000000000000000000000030460
:102B6E00000002000000000001010101010101014D
:102B7E00000002020202020202020000030303032B
:102B8E00030303030000040404040404040400000B
:102B9E0001020408102040800000010204081020E9
:102BAE004080000001020408102040800000010255
:102BBE000408102040800000FFFFFFFFFFFFFFFF13
:102BCE00FFFFFF00FFFF0102FFFFFFFFFFFFFFFF01
:102BDE00FFFFFFFFFFFFFFFF03FFFFFFFFFFFFFFF3
:102BEE00411E000000000000000000000000000078
:102BFE0000000000000000000000000000000000C7
:022C0E000000C4
:012C100000C3
:072C110000000000000000BC
:012C180000BB
:022C19000000B9
:042C1B0000000000B5
:042C1F001527152739
:042C230000000000AD
:00000001FF
